:020000040800F2
:10000000780900209D010008A5010008A70100084B
:10001000A9010008AB010008AD01000800000000C4
:10002000000000000000000000000000AF01000818
:10003000B101000800000000B301000861340008AD
:10004000B7010008B7010008B7010008B7010008B0
:10005000B7010008B7010008B7010008B7010008A0
:10006000B7010008B7010008491E0008B7010008E1
:10007000B7010008B7010008B7010008B701000880
:10008000B7010008B7010008B7010008B701000870
:10009000B7010008B7010008B7010008B701000860
:1000A000B7010008B7010008B7010008B701000850
:1000B000B7010008B7010008ED340008B7010008D7
:1000C000B7010008B7010008B7010008B701000830
:1000D000B70100083D39000899390008B701000848
:1000E000B7010008B7010008B7010008B701000810
:1000F000B7010008B7010008B7010008B701000800
:10010000B7010008B7010008B7010008B7010008EF
:10011000B7010008B70100083D350008B701000825
:10012000B7010008B7010008B7010008B7010008CF
:10013000B7010008B7010008B7010008B7010008BF
:10014000B7010008B7010008B7010008B7010008AF
:10015000B7010008B7010008B7010008B70100089F
:10016000B7010008B7010008B7010008B70100088F
:10017000B7010008B7010008B7010008B70100087F
:10018000B7010008B7010008DFF80CD000F0D6FA7C
:1001900000480047D94800087809002006488047F1
:1001A00006480047FEE7FEE7FEE7FEE7FEE7FEE75C
:1001B000FEE7FEE7FEE7FEE7853400088901000858
:1001C00040EA01039B0703D009E008C9121F08C0D9
:1001D000042AFAD203E011F8013B00F8013B521E59
:1001E000F9D27047D2B201E000F8012B491EFBD2D0
:1001F00070470022F6E710B513460A460446194632
:10020000FFF7F0FF204610BD421C10F8011B00292B
:10021000FBD1801A70472DE9FE4F804681EA03002A
:10022000C00F0C46009021F0004123F00045B8EBD0
:100230000200A94105D24046214690461C460B4685
:10024000024623F00040104347D0270DC7F30A00B1
:10025000C3F30A510290401A019040286BDAC3F3AD
:10026000130040F4801B0098924620B10023D2EB8B
:10027000030A63EB0B0B01985946C0F1400250464C
:1002800000F096F906460D4650465946019A00F090
:10029000AEF910EB08006141002487EA115284EAAC
:1002A000E7731A4340D0009A62B3019A012A4FEAD9
:1002B000075215DC001B61EB02014FF0004202EA1D
:1002C0000752CDE90042001C41F5801132462B4611
:1002D00000F0E5F903B0BDE8F08F40462146F9E7AC
:1002E000001B61EB0201001C41F5801300185B410B
:1002F0002018A2F5001747EB030140EAD570B619A4
:100300006D4111E06D084FEA360645EAC0754FEAC7
:100310000752001B61EB0201001C41F580114908E6
:100320004FEA30000019514132462B4603B0BDE878
:10033000F04F00F0A5B90098012240000023D0EB57
:10034000020263EBE073009821464FEAE074B8EBD9
:10035000000061EB0401E9E783F000435BE781F013
:10036000004158E72DE9FE4F81EA030404F0004400
:1003700021F0004100944FF0000B23F0004350EABD
:1003800001045ED052EA03045BD0C3F30A54C1F304
:100390000A552C44A4F2F3340194A0FB0254C1F397
:1003A000130141F48011C3F3130343F4801301FBE1
:1003B000024400FB034E840A970A44EA815447EA48
:1003C0008357A4FB076802958D0A05FB07854FEA52
:1003D000932C04FB0C542705029D4FEA065847EA6C
:1003E0001637B5EB08056EEB070C870E920E47EA41
:1003F000811742EA8312A7FB0201B6EB0B0164EB03
:1004000000042B0D43EA0C335E1844EB1C50DA4613
:100410005146E7FB0201C5F313044FEA0B3343EAED
:1004200014534FEA0432019C43EA0603A4F10C047E
:100430000294009CCDE900B400F031F903B0BDE8AE
:10044000F08F00200146F9E72DE9F04D81EA030421
:1004500004F0004B21F0004514464FF0000A23F051
:10046000004150EA050220D054EA01021DD0C5F334
:100470000A570246C5F31303C1F31300C1F30A562A
:1004800040F4801543F48013A7EB0608101BD646F2
:1004900008F2FD3873EB050002D308F1010801E012
:1004A00092185B41B8F1000F03DA00200146BDE865
:1004B000F08D00204FF48011064684460EE0171B95
:1004C00073EB050705D3121B63EB050306434CEAE8
:1004D000010C49084FEA300092185B4150EA0107CD
:1004E000EDD152EA030012D082EA040083EA05014A
:1004F000084305D0101BAB4106D20122002306E0C1
:1005000000224FF0004302E06FF0010253101AEB9B
:1005100006004CEB085110EB0A0041EB0B01BDE863
:10052000F04D00F0ADB800F0004230F000400AD0CD
:10053000C10D01F56071C0F3160042EA0151C20815
:1005400040071143704700200146704701F0004307
:1005500030B421F0004150EA010206D00A0DA2F5A4
:100560006072C1F31301002A02DC30BC0020704726
:10057000440F44EAC104C100E01830BC00EBC25093
:1005800000F047B830B50B46014600202022012478
:1005900009E021FA02F59D4205D303FA02F5491B51
:1005A00004FA02F52844151EA2F10102F1DC30BD67
:1005B000202A04DB203A00FA02F100207047914023
:1005C000C2F1200320FA03F3194390407047202A18
:1005D00004DB203A21FA02F00021704721FA02F3ED
:1005E000D040C2F120029140084319467047202AAA
:1005F00006DBCB17203A41FA02F043EAE07306E04B
:1006000041FA02F3D040C2F120029140084319465A
:1006100070470029A8BF7047401C490008BF20F060
:100620000100704710B4B0FA80FC00FA0CF050EAF8
:10063000010404BF10BC704749B1CCF1200421FA79
:1006400004F411FA0CF118BF012121430843A3EB74
:100650000C01CB1D4FEA00614FEA102042BF002081
:1006600010BC704700EBC35010440029A4BF10BC5D
:100670007047401C490008BF20F0010010BC7047C3
:1006800010B5141E73F1000408DA401C41F100019A
:1006900092185B411A4301D120F0010010BD2DE9F1
:1006A000F04D92469B4611B1B1FA81F202E0B0FAE8
:1006B00080F220329046FFF77BFF04460F4640EA67
:1006C0000A0041EA0B0153465A46084313D011462B
:1006D00053EA010019D0C8F140025046FFF777FFF6
:1006E00005460E46504659464246FFF761FF08430D
:1006F00005D0012004E020463946BDE8F08D0020F9
:10070000054346EAE0762C4337430A986305E40A3A
:10071000A0EB08000022FD0A44EA47540A3002D543
:1007200000200146E9E7010510196941DDE90845A6
:1007300000196941BDE8F04DA2E70000064C074DE5
:1007400006E0E06840F0010394E8070098471034A1
:10075000AC42F6D3FFF71CFDF04C0008104D00082A
:1007600070B58D1810F8014B14F0030201D110F888
:10077000012B231106D110F8013B03E010F8016BA7
:1007800001F8016B521EF9D1ABB110F8012B04F046
:100790000C048A1A0C2C03D0A2EB84129B1C08E0D8
:1007A00010F8014BA2EB0422F8E712F8014B01F814
:1007B000014B5B1EF9D5A942D4D3002070BDCA43BA
:1007C0000260704721B1826842F00102826003E05A
:1007D000826822F001028260704700000021084A0E
:1007E0001168084A1140D0E900231A4383681A436C
:1007F000C3681A431143044AC2F804137047000047
:1008000004230140E030FCFF0020014000B58DB022
:100810000121084602F0E2F90121080202F00EFA75
:100820004020019003208DF8080000208DF80B0077
:1008300001A9174801F05FFC002003900490069086
:10084000059003A8FFF7CAFF0121080202F006FA8B
:1008500000214FF4807002F001FA00208DF8200092
:1008600007908DF8210009900B9001208DF8300041
:1008700007A9084800F01EF806230122194605487A
:1008800000F042F801210348FFF79CFF0DB000BDC6
:1008900000000240002001400146C86C80B2704751
:1008A0000246002013680B400BB1012000E000203D
:1008B0007047000030B50246002000235068104CFD
:1008C00020400D790C6844EA05242043506090686C
:1008D0000C4C2040D1E903542C438D682C434D79B6
:1008E00044EA450420439060D06A20F470000C7DF7
:1008F000641EE4B2234340EA0350D06230BD0000DE
:10090000FFFEFFFCFDF7FFC0F0B504460D460020DA
:100910000021092D11DDE068A5F10A0606EB460766
:10092000072606FA07F18843A5F10A0606EB4606F4
:1009300003FA06F10843E0600CE0206905EB450787
:10094000072606FA07F1884305EB450603FA06F188
:1009500008432061072A0FDA606B561E06EB8607F4
:100960001F2606FA07F18843561E06EB860605FA8F
:1009700006F10843606322E00D2A0FDA206BD61FD0
:1009800006EB86071F2606FA07F18843D61F06EBFB
:10099000860605FA06F10843206310E0E06AA2F13A
:1009A0000D0606EB86071F2606FA07F18843A2F11B
:1009B0000D0606EB860605FA06F10843E062F0BD77
:1009C000816841F0804181607047000070B500236C
:1009D000224A1278082A03DA0022214C22703BE0D6
:1009E000002034E01F4A125C552A2ED11D4CC21D36
:1009F000A25CBB2A29D12546841C2D5D194EC41C3E
:100A0000345D2544041D345D2544441D345D2A199C
:100A1000D41702EB14642412A2EB0424E3B234468C
:100A2000821DA25C9A420DD1002105E00A180D4CEE
:100A3000A25C62544A1CD1B20829F7DB0122084C9F
:100A4000227002E00022064C2270421CD0B2034AFF
:100A50001278D21F8242C5DA70BD00008C010020DE
:100A60006C0200208802002010B500F009F8012077
:100A700002F086FC00200149086010BDBC02434220
:100A80001CB50121422002F0A9F84020009001206D
:100A90008DF8040000208DF8060003208DF8050075
:100AA00069460A4801F027FB4FF4004000900120FE
:100AB0008DF8040000208DF8060003208DF8050055
:100AC0006946024801F017FB1CBD0000000402400B
:100AD00010B502F0C3F9012008490860022003F0B4
:100AE000D5FE0748D0F81C02C4B2002003490860B4
:100AF000022003F0CBFE204610BD00009882404249
:100B00000080404270B5002402F0A8F9012010498D
:100B10000860002517E06006040E01200C49091F3B
:100B20000860022003F0B2FE0A48D0F81C0208B1A7
:100B3000601CC4B200200649091F0860022003F0AF
:100B4000A5FE681CC5B2082DE5DB204670BD00007F
:100B50009C8240420080404210B5044602F08EF96B
:100B60001CB101200A49086002E000200849086021
:100B700001200749091F0860022003F087FE0020BA
:100B80000449C1F89802022003F080FE10BD000065
:100B90009C8240420080404270B5044602F06EF9EB
:100BA00000251BE004F080061EB101200E490860FC
:100BB00002E000200C4908606006040E01200A498A
:100BC000091F0860022003F061FE00200749C1F8F8
:100BD0009802022003F05AFE681CC5B2082DE1DB22
:100BE000FFF776FF70BD00009C82404200804042CB
:100BF00010B502F043F90120094908600949C1F81C
:100C00009802042003F042FE0020054908600420F9
:100C100003F03CFE00200349C1F8980210BD00001B
:100C20009C8240420080404210B502F027F900202B
:100C30000749086001200749C1F89802042003F021
:100C400025FE012002490860042003F01FFE10BDAC
:100C50009C8240420080404210B504460B488442CA
:100C600009D10121480601F0D9FF00214FF00070A1
:100C700001F0D4FF08E00121880601F0CFFF002138
:100C80004FF0806001F0CAFF10BD0000006400401A
:100C900010B50021837A012202FA03F13D4A12685D
:100CA00042F001023B4B1A603A4A1C3212688A43F6
:100CB000384B1C331A60027BCAB9364A0C321268B0
:100CC0008A43344B0C331A604288C38842EA034398
:100CD000304A4032847A42F834300288838842EACB
:100CE00003432C4A4032847A02EBC4025360027BF5
:100CF000012A19D1274A0C3212680A43254B0C33BA
:100D00001A604288038842EA0343224A4032847AC6
:100D100042F83430C288838842EA03431D4A403295
:100D2000847A02EBC4025360C27A3AB9194A121D9E
:100D300012688A43174B1B1D1A6006E0154A121DE4
:100D400012680A43134B1B1D1A60028932B9114AFB
:100D5000143212688A430F4B14331A600289012A35
:100D600006D10C4A143212680A430A4B14331A6033
:100D7000427B012A06D1074A1C3212680A43054BFE
:100D80001C331A60034A126822F00102014B1A60F8
:100D900010BD0000006600401AB143690B43436177
:100DA00002E043698B434361704730B5024600203F
:100DB0000023146824F002041460146844F0010451
:100DC000146000E05B1C546804F001041CB94FF689
:100DD000FF74A342F6D1546804F001040CB900205A
:100DE0006CE08C79012C04D1146844F08004146008
:100DF00003E0146824F080041460CC79012C04D141
:100E0000146844F04004146003E0146824F04004C3
:100E100014600C7A012C04D1146844F0200414608E
:100E200003E0146824F0200414604C7A012C04D1EF
:100E3000146844F01004146003E0146824F01004F3
:100E400014608C7A012C04D1146844F008041460F6
:100E500003E0146824F008041460CC7A012C04D157
:100E6000146844F00404146003E0146824F00404DB
:100E700014608C78A407CD7844EA05640D7944EABF
:100E800005444D7944EA05540D886D1E2C43D46108
:100E9000146824F001041460002300E05B1C546813
:100EA00004F001041CB14FF6FF74A342F6D154685C
:100EB00004F001040CB1002000E0012030BD024626
:100EC000002019B9D36803F0030006E0012903D11B
:100ED000136903F0030000E00020704710B500F52F
:100EE000D87303EB01131B6803F004031372137A26
:100EF00053B900F5D87303EB01131B6840F2FF747C
:100F000004EA5353136009E000F5D87303EB0113AF
:100F10001B686FF0604404EAD303536000F5D87394
:100F200003EB01131B6803F00203537200F5D8733F
:100F300003EB01135B6803F00F03937200F5D873A2
:100F400003EB01135B681B0AD37400F5D87303EB42
:100F500001139B68D37200F5D87303EB01139B68F0
:100F60001C0A147300F5D87303EB01139B681C0C67
:100F7000547300F5D87303EB01139B681B0E937336
:100F800000F5D87303EB0113DB68D37300F5D87356
:100F900003EB0113DB681C0A147400F5D87303EB30
:100FA0000113DB681C0C547400F5D87303EB0113B8
:100FB000DB681B0E937421B9C36843F02003C36040
:100FC00003E0036943F02003036110BD10B502463E
:100FD0000020936803F08063B3F1806F00D110E0CC
:100FE000936803F00063B3F1006F01D1012008E0C2
:100FF000936803F08053B3F1805F01D1022000E0D9
:101000000420042874D002F5C07303EB00131B689E
:1010100003F0010402F5C07303EB00131C600B7AAC
:101020007BB94B7A0C8843EA445302F5C07404EB55
:1010300000142468234302F5C07404EB00142360F9
:1010400010E00B7A4C6843EAC4034C7A234302F560
:10105000C07404EB00142468234302F5C07404EB4D
:10106000001423608B7A03F00F038B7202F5C073B8
:1010700003EB00135B6823F00F0402F5C07303EB6E
:1010800000135C6002F5C07303EB00135B688C7A9D
:10109000234302F5C07404EB001463608B7B1C06D1
:1010A0004B7B44EA03440B7B44EA0323CC7A23437F
:1010B00002F5C07404EB0014A3608B7C1C064B7C0F
:1010C00044EA03440B7C44EA0323CC7B234302F52C
:1010D000C07404EB0014E36002F5C07303EB00136B
:1010E0001B6843F0010402F5C07303EB00131C609E
:1010F00010BD000010B50246002321B1012907D020
:1011000002290FD109E090681D4C00EA04030BE0AE
:1011100090681C4C00EA040306E090681A4C00EA50
:10112000040301E0002300BF00BF184C181BA342BA
:1011300016D007DC83B16FF08060184470B10228CC
:1011400018D111E0B0F5007F10D0114C204448B107
:10115000B0F5003F0ED10BE002230DE000230BE0C1
:10116000002309E0002307E0012305E0012303E059
:10117000012301E0002300BF00BFD8B210BD000072
:101180000300000400030008000003100001000831
:101190000001FFF72DE9FF4705460E464FF0000A14
:1011A00006B10DB94FF0010A9448007800F00F0025
:1011B000032801DD4FF0010A90480078C0F30019C0
:1011C000BAF1000F19D000208DF80A008DF80B003D
:1011D00001208DF80C000020ADF80000ADF80200F1
:1011E000ADF80400ADF80600ADF8080001208DF858
:1011F0000D006846FFF74CFDFEE00020ADF808004A
:1012000001208DF80D004FF000080024F2E07B482B
:10121000007800F00F0030B101283BD002287BD0CD
:10122000032874D19CE000208DF80B008DF80C0091
:1012300035F824004B460022114600F0E1F8ADF8E5
:10124000020005EB840148884B460022114600F05D
:10125000D7F8ADF80600601CC0B20446B04213DAFD
:1012600035F824004B460022114600F0C9F8ADF8CD
:10127000000005EB840148884B460022114600F02F
:10128000BFF8ADF8040004E00020ADF80600ADF8AA
:1012900004009CE001208DF80B0000208DF80C006C
:1012A00035F824004B460022114600F0A9F8ADF8AD
:1012B0000200601CC0B20446B04207DA35F82400D0
:1012C0004B460022114600F09BF800E00020ADF8EC
:1012D0000600601CC0B20446B04207DA35F82400AC
:1012E0004B460022114600F08BF800E00020ADF8DC
:1012F0000000601CC0B20446B04209DA35F8240090
:101300004B460022114600F07BF802E004E051E079
:101310000020ADF804005AE000208DF80B000120F9
:101320008DF80C0035F824004B460022114600F0E1
:1013300081F80746B8B2ADF80200380CADF80000ED
:1013400005EB840148884B460022114600F072F8F4
:101350000746B8B2ADF80600380CADF8040036E028
:1013600001208DF80B008DF80C0035F824004B4659
:101370000022114600F05EF80746B8B2ADF8020050
:10138000380CADF80000601CC0B20446B04208DA68
:1013900005EB840148884B460022114600F04AF8CC
:1013A00000E000200746B8B2ADF80600380CADF8F2
:1013B00004000CE00020ADF80200ADF80000ADF82C
:1013C0000600ADF8040034464FF0010A00BF00BF2C
:1013D0008DF80A806846FFF75BFCB44202DA601CB5
:1013E000C4B200E007E008F10100C0B280460D2859
:1013F00000DB00E00BE700BFBDE8FF87B60100207F
:1014000010B50446C4F309040AB1102000E000201E
:1014100002460BB1082000E00020034613B1C1F3DF
:10142000C13000E00020014642EA4410184308435E
:1014300080B210BD10B50446C4F309040AB10220FD
:1014400000E0002002460BB1042000E0002003462B
:1014500013B18803C00A00E00020014642EA44308C
:101460001843084310BD000010B500210148FFF7E4
:1014700026FD10BD0064004070B50446002554B13F
:1014800000210648FFF71BFD054625B12246002135
:101490000248FFF723FD284670BD000000640040AD
:1014A0002DE9F04706460C4617469846DDF8209091
:1014B0004FF0000A15480760C0F804800020134967
:1014C0000872487208468472224631460B30FEF795
:1014D00077FE0E490E48FFF779FD0546042D09D029
:1014E0004FF0010A29460A48FFF704FE012801D1FE
:1014F0004FF0020ABAF1010F04DBB9F1000F01D07D
:1015000089F800505046BDE8F0870000A80300208D
:10151000006400400448006800F0E05008B1012079
:1015200070470020FCE700000864004000B500BFE1
:10153000FFF7F0FF0028FBD000BD10B501E000F080
:1015400005F8FFF791FF0028F9D110BD10B5244828
:10155000FFF792FF2248C07C20B101280AD0022860
:1015600018D10FE01E48827A00F10B011D4800F0EF
:1015700036FD24E01A48827A00F10B011A4800F087
:101580002EFD1CE01648827A00F10B01174800F08E
:1015900026FD14E01248C07C03280FDB1048C07CF5
:1015A00006280BDC0E48C07CC01E114901EBC000B0
:1015B0000B490B310A6802604968416000BF00BFF7
:1015C0000748C07C062809DC0548C07C094951F859
:1015D00020000949096808430749086010BD000058
:1015E0001C050020D0030020E003002000040020A0
:1015F00030050020E04B0008B801002000B5034A88
:101600005178107801F000F800BD0000300500208E
:101610007CB5012530E0002508221949194800F061
:10162000C9FCC4B214B1FFF781FF01250822144997
:10163000154800F0BFFCC4B25CB1FFF777FF01A80A
:1016400000234FF42072214600900D48FFF728FF39
:10165000012508220A490D4800F0ACFCC4B25CB177
:10166000FFF764FF01A800234FF428722146009081
:101670000348FFF715FF0125002DCCD17CBD0000EC
:10168000BC010020D0030020F00300201004002043
:1016900010B50D4A32210D4800F02AF80C4A3221CB
:1016A0000C4800F025F80C4A32210C4800F020F8D4
:1016B0000B4A32210B4800F01BF80B4A32210B4831
:1016C00000F016F810BD000020040020D003002018
:1016D00052040020E003002084040020F0030020D6
:1016E000B604002000040020E804002010040020BC
:1016F00070B504460E4615462660E560002120467A
:1017000000F0A7FC70BD000038B5FFF716FF67E0DA
:10171000FFF713FF002461E0344850F824003449F7
:1017200009680840002857D0072C4CD2DFE804F0A5
:10173000040C18242739450000BF69462D4800F0E5
:101740009AFC0028F9D13EE003E09DF8000000F08B
:1017500073FA6946284800F08EFC0028F5D132E083
:1017600003E09DF8000000F0EBFA6946234800F022
:1017700082FC0028F5D126E0FFF740FF23E0204857
:1017800002F0C6F81F49088005E01E480088A0F551
:1017900061601C4908801B480088B0F5616FF4DA6D
:1017A00011E017480838007C022805D11448093098
:1017B00002F0A6F81449088005E011480838007EB8
:1017C000012800D100BF00BF104850F8240008498C
:1017D0000968084006490860601CC4B2062C9BDDFD
:1017E00003480068002893D138BD0000E04B000892
:1017F000B8010020D0030020E003002000040020F6
:1018000038050020C8010020C6010020604C0008F7
:1018100010B50020054908600549087007210548F2
:10182000FFF7B8FCFFF734FF10BD0000B80100203F
:10183000B6010020CA01002010B5E9480078E0B1E7
:10184000E848006803F03CF8B8B9E7480078FD289C
:1018500007D1E6480078401CC1B2E34801F0D6FC4D
:1018600008E0E1480078552802D101F09BF801E03A
:10187000FFF7ACF80020DA490870DD48007801284D
:101880007ED1D9484078AA287BD1D74880781128C2
:1018900078D00CDC112876D2DFE800F075222958C8
:1018A00096B2CFE4E5FD757575757575FC00512828
:1018B0006AD00CDC302868D004DC122866D02028DE
:1018C00061D153E140287BD05028F9D15FE16128F4
:1018D00077D0622876D0632875D08028F0D16FE168
:1018E0000021084601F05BFC01F046FA6EE101F0D0
:1018F0007FFA0020BF4908700120BF49087000200E
:10190000BE490870BE490870BE490870BE490870DB
:10191000BE490870B4484079BD490880084600882F
:101920004FF6FF7101EA0020B9490880AE480079FE
:1019300009880843B6490880AB48C078B5490860B3
:1019400008460168006800F04BFA3FE101F050FAE8
:101950000020A8490870A8490870A8490870A8493B
:101960000870A84908700120A74908700020A749FD
:1019700008709D484079A64908800846008806E01E
:101980002CE124E1E2E020E106E1FAE0E9E04FF6B3
:10199000FF7101EA00209E49088093480079098878
:1019A00008439B4908809048C0789A4908600846D7
:1019B0000068414297480068404200F011FA05E192
:1019C000E4E0EEE0F2E0F6E000208A4908708A499F
:1019D00008700120894908700020894908708949E8
:1019E000087089490870894908707F48C07889491A
:1019F0000860084601680068404200F0F1F9E5E03F
:101A000000207C4908707C4908707C4908700120DE
:101A10007B49087000207B4908707B4908707B492E
:101A200008707148C0787B490860084600684142E8
:101A30007848006800F0D4F9C8E000206D490870CB
:101A40006D4908706D4908706D4908706D490870DE
:101A50006D49087001206D4908706348C0786D4970
:101A60000860B3E0B2E001F0EFF901F0C1F9002045
:101A700060490870604908706049087060490870E2
:101A800001206049087000205F4908705F490870B4
:101A9000554801E04FE01BE040795F490880084667
:101AA00000884FF6FF7101EA00205B4908804E482C
:101AB000007909880843584908804B48C07855493F
:101AC0000860084601680068404201F068FB7DE05C
:101AD00001F0BAF901F08CF9002046490870464936
:101AE0000870464908704649087001204549087049
:101AF000002045490870454908703B4840794649EF
:101B00000880084600884FF6FF7101EA002042492C
:101B1000088035480079098808433F4908803248E1
:101B2000C0783C490860084600684142394800686E
:101B300001F035FB4AE02C48C078384908702A4843
:101B4000007948702848407988703FE02648C0787E
:101B50003249C87024480079087123484079487197
:101B600034E006212D4800F071FD2FE01E48C178B9
:101B7000012001F0DFFB1C480179022001F0DAFBB3
:101B800024E01949C87801F0C3FB1FE01EE00421DE
:101B9000234800F05BFD19E00421224800F056FDC7
:101BA00014E00421204800F051FD0FE004211F48FB
:101BB00000F04CFD0AE004211D4800F047FD05E05F
:101BC0000948C0781B49087000E000BF03E0082105
:101BD000054801F01BFB00200549087010BD0000FE
:101BE0008D01002064020020880200208C0100206A
:101BF0006C0200209E01002097010020940100202B
:101C000095010020960100209801002099010020F4
:101C1000AC010020A8010020AE0100206D020020D0
:101C2000F4010020F8010020FC0100200002002047
:101C3000040200206002002010B504460F4800781E
:101C400070B902F037FE0A300D49086000200D49D6
:101C500008700D48097844540120084908700BE0C9
:101C600008480078C82807DA06480078401CC0B247
:101C70000449087004490C5410BD00008D01002077
:101C8000640200208C010020880200202748007890
:101C900000284AD026484078032803D024484078BA
:101CA0000C280CD12248807801283BD12048C078EC
:101CB000012837D11E4800791E49087032E01C48BF
:101CC000407821280DD11A4880781B49887018481F
:101CD000C078C87016480079087115484079487175
:101CE00020E013484078222810D11148807812490A
:101CF00088710F48C078C8710D48007908720C4887
:101D00004079487201200D4908700BE0084840787E
:101D1000062807D106488078012803D10448C078F6
:101D20000449087000200149087070478F010020A5
:101D3000840100209E0100205C030020610200203D
:101D40000A49097889B90A490A4A1278885409491E
:101D50000978491C074A117011460978072904DDE2
:101D6000002111700121014A117070478F0100207C
:101D7000840100208E01002010B5FFF7C5FCFFF79D
:101D800047FCFFF759FDFFF781FF10BD1CB501218E
:101D90004FF4C07000F022FFF020009000208DF87A
:101DA000040001208DF8070069460B4800F0A3F9F4
:101DB0004FF47040009001208DF8040000208DF851
:101DC000060001208DF8070003208DF80500694604
:101DD000024800F090F91CBD00200240001C0240A7
:101DE00070B505460C46002D06DB642D00DD64252C
:101DF000052D0BDA052509E015F1640F01DA6FF006
:101E0000630515F1050F01DD6FF00405002C06DBFD
:101E1000642C00DD6424052C0BDA052409E014F1A0
:101E2000640F01DA6FF0630414F1050F01DD6FF048
:101E300004042146284601F0B2F970BD014908604A
:101E4000704700007001002010B52DED068B1020AA
:101E500000F054F8012835D110211C4800F0B6F9E3
:101E600068BB00211A4801F082FB1A4890ED000A75
:101E7000B8EE400A184880ED000A0068FEF753FBF0
:101E800041EC1A0B9FED150B53EC102BFEF76AFA81
:101E900041EC190B9FED130B53EC102BFEF75CFA82
:101EA00041EC180BFEF752FB0B490860084690ED19
:101EB000000ABCEEC00A10EE100A0C49088010207F
:101EC00000F016F8BDEC068B10BD000000040240C7
:101ED00000100040380100203401002085EB51B88B
:101EE0001E85FB3F00000000000034403C01002044
:101EF0000149086070470000143C01400146002081
:101F0000034A12680A400AB1012000E0002070472D
:101F1000143C0140002123498279002A3AD00A4624
:101F2000126803689A430B461A600A1D1268036818
:101F30009A430B1D1A60027911440A6803681A4318
:101F40000A60184A0832126803689A43154B08332E
:101F50001A601A1D126803689A43124B0C331A60F8
:101F60004279102A0ED11A1F126803681A430D4BCA
:101F700008331A601A1D126803681A43094B0C33A0
:101F80001A600DE00749427911440A6803681A4350
:101F90000A6005E0027911440A6803689A430A60FE
:101FA00070470000003C014010B500F023FDFEF733
:101FB0002DFC10BDF0B507460C461646002564B151
:101FC00006E06119384600F056F800B904E06D1CCF
:101FD000301EA6F10106F4D100BF2846F0BDF0B5D1
:101FE00007460D461646002406E0295D384600F0F7
:101FF0006CF800B904E0641C301EA6F10106F4D1AF
:1020000000BF2046F0BD30B504460025204600F054
:102010004AF870B1D4E90001401E814203D1A068A2
:1020200038B1012505E0D4E90101401C814200D00E
:102030000125284630BD30B504460025204600F075
:1020400032F820B1D4E90110884200D00125284699
:1020500030BD70B504460D4664B12068012809D929
:102060000020A0602068401E60602A462168E06869
:10207000FEF7B8F870BD70B504460D46002685B170
:102080002046FFF7C0FF60B16068401C60602168B7
:10209000884201D3002060606168E068405C28707D
:1020A0000126304670BD0146002069B10A68012A48
:1020B0000AD9CA6842B10B688A689A4204D2D1E947
:1020C00000329A4200D20120704770B504460D4696
:1020D00000262046FFF7AFFF58B1A168481CA0605A
:1020E000E06845542168A068884201D30020A060C0
:1020F0000126304670BDF0B50A46002100230024B9
:1021000000BF3DE0012505FA01F3156805EA030467
:102110009C4234D105684F000326BE40B54305609C
:1021200015794E00B5400668354305601579012DD7
:1021300002D01579022D16D185684F000326BE40C6
:10214000B543856055794E00B54086683543856056
:10215000456801268E40B5434560456896798E40B6
:10216000B6B235434560C5684F000326BE40B5434F
:10217000C560D5794E00B540C6683543C560491C79
:102180001029BFD3F0BDF0B5002300244D07ED0E9C
:1021900002FA05F3CE1000F1200555F826504E073F
:1021A000F70E0F26BE40B543CF1000F1200646F8CB
:1021B0002750CE1000F1200555F8265045EA0304BB
:1021C000CE1000F1200545F82640F0BD0246002063
:1021D00013690B400BB1012000E0002070474183E0
:1021E000704701837047000010B502210848FEF7D0
:1021F000E6FA0748FEF7E4FB00BF02210448FEF7B9
:102200004FFB0028F9D00248FEF746FB10BD000046
:102210000020014070B52DED048B012001F0B0F8D5
:10222000102001F0ADF800F059FB13480478407815
:1022300000EB042400EE104AB8EEC00A10EE100ABB
:10224000FEF771F941EC190B9FED0C0B53EC102BC1
:10225000FEF7FAF841EC180BFEF778F90949086027
:10226000084690ED000ABDEEC00A10EE105AA8B262
:10227000BDEC048B70BD00004401002033333333C8
:102280003333F33F4801002070B504460025002693
:1022900007E0FFF7A9FF0544052002F0EDFA701CE6
:1022A000C6B2A642F5DBB5FBF4F080B270BD00000B
:1022B0000146002021B107290AD008290ED10AE0E1
:1022C000074A5278064B1B7802EB032290B205E0D6
:1022D000034A507802E0024A107800BF00BF7047FE
:1022E000C401002010B54FF480710248FFF76EFF63
:1022F00010BD00000018024010B5002400F05AFD87
:1023000004461348007801280ED112480088A042E4
:102310001CDC00200E49087003200F4908700021C2
:10232000084600F03CFF11E00C48007801280DD170
:1023300008480088A04209DC0020084908700320F2
:10234000054908700021084600F029FF10BD000073
:1023500097010020AC0100209E0100209801002080
:1023600010B51B48006802F0ABFA28B119480068A4
:10237000401C184908602AE0164800684FF47A713A
:10238000B0FBF1F4214614A002F0ACF9114800684A
:102390001249884208D20F480068B1FBF0F4214688
:1023A0000FA002F09FF908E00A4800680E49B1FB4F
:1023B000F0F421460DA002F095F9002005490860CF
:1023C00002F078FA00F57A700149086000BF10BD8C
:1023D0007C000020800000202575000040420F0096
:1023E0002D257575730A000000CA9A3B2D25756E60
:1023F000730A000000B589B00121212000F0EEFB36
:1024000009220B214248FFF7BEFE09220C21404859
:10241000FFF7B9FE4FF4C050079002208DF820005E
:102420008DF8210000208DF8220001208DF8230076
:1024300007A93748FFF75FFE4FF48060079001203F
:102440008DF8200002208DF8210000208DF8220058
:1024500001208DF8230007A92E48FFF74CFE00202D
:1024600000F05EF80121480600F0C8FB2A48FEF79C
:10247000F3FB00208DF8160001208DF817000020D6
:102480008DF8180001208DF8190000208DF81A0031
:1024900001208DF81B0000208DF812008DF813002C
:1024A00001208DF8140002208DF815000720ADF8EA
:1024B000100004A91848FEF778FC00208DF80A00E7
:1024C0008DF80B0001208DF80C000020ADF8000005
:1024D000ADF80200ADF80400ADF80600ADF8080054
:1024E00001208DF80D006846FEF7D2FB12200B4943
:1024F000086048600020487208720120887200223B
:1025000002210548FEF748FCFFF782F909B000BD3B
:10251000000002400014024000640040500500200A
:1025200010B504462CB94FF480610548FFF757FEFB
:1025300004E04FF480610248FFF753FE10BD000035
:102540000014024010B5FFF717FC10BD10B504468B
:102550002CB14FF480710548FFF743FE04E04FF4BF
:1025600080710248FFF73BFE10BD000000200240D2
:1025700070B54FF4E06000F00BFA204800F07EFBED
:102580001E4840684FF47A72B0FBF2F1481EB0F179
:10259000807F00D31BE0481E4FF0E02250615017AF
:1025A0000F22002807DA13071D0E154B00F00F0449
:1025B000241F1D5503E013071C0E124B1C5400BFB3
:1025C00000204FF0E02290610720106100BF18202A
:1025D000FFF734FC01F04EF800F01CF8FFF7D6FBD3
:1025E00001F092FBFFF706FFFEF73EFA00F07AFCDF
:1025F000FFF7DAFC00F0DAF870BD00007802002086
:1026000018ED00E000E400E0014A107051707047DE
:10261000C40100201CB50121202000F0DFFA4FF496
:102620000060009001208DF8040000208DF8060065
:1026300001208DF8070003208DF805006946024847
:10264000FFF759FD1CBD0000001402402DE9F041C8
:1026500007468846002028490860092002F00CF946
:1026600001202649C1F8AC02042002F005F94FF41C
:102670000C7002F00BF900242EE0002528E0385DF4
:10268000284100F0010676B900201B4908604FF48C
:10269000FA7002F0FBF801201849C1F8AC024FF4BF
:1026A000FA7002F0F3F8012E10D1002012490860F0
:1026B0004FF4FA7002F0EAF801201049C1F8AC02B8
:1026C00002F0DAF84FF4487002F0E0F8681CC5B286
:1026D000082DD4DB601CC4B24445CEDB0020064983
:1026E00008604FF40C7002F0D1F801200349C1F8E2
:1026F000AC02BDE8F0810000AC8242420080424260
:1027000070B5002400252548006880B90A2002F031
:10271000B3F82248006850B9012021490860062119
:102720002048FFF793FF08211F4800F05FFD1B487A
:10273000001D006870B90A2002F09EF81748001DBD
:10274000006838B901201649091D086000210846B3
:1027500000F025FD11480830006880B90A2002F019
:102760008BF80E480830006848B901200C49083140
:102770000860040205022946204600F010FD0748C3
:102780000C30006840B90A2002F076F803480C309B
:10279000006808B900F0DEFB70BD00001002444282
:1027A000B0824342180000203000002000B587B0FE
:1027B000012140F2091000F011FA01214FF420200C
:1027C00000F01CFA082200213A48FFF7DCFC07223F
:1027D00006213948FFF7D7FC00208DF81A000120A8
:1027E0008DF81B0002208DF81800012005900220B2
:1027F0008DF8190005A92F48FFF77DFC02208DF800
:1028000018004020059005A92B48FFF774FC002014
:102810008DF81A0001208DF81B008DF818000002B9
:10282000059002208DF8190005A92448FFF763FCE4
:102830000020FFF78BFE4FF4E13001900020ADF84F
:102840000800ADF80A00ADF80C00ADF81000082043
:10285000ADF80E0001A91A4801F0B8F90121184895
:1028600001F04CF94FF4E13001900420ADF80E0076
:1028700001A9144801F0AAF926208DF800000020D3
:102880008DF8010001208DF802008DF803006846E4
:1028900000F042F8012240F225510A4801F071F996
:1028A0000121084801F02AF94FF47A7006490860BE
:1028B00007B000BD00000240000C024000200240B2
:1028C000004C0040004400406001002002468A4263
:1028D00001D9501A7047881AFCE7000010B5FEF7BE
:1028E00087F94720FEF758F900240EE0FEF70AF9B1
:1028F00008490855032C03D10120FEF72DF902E009
:102900000020FEF729F9601CC4B2032CEEDBFEF7B1
:102910008BF910BD4401002070B5002100230F2267
:10292000C4781CB3174C246804F4E064C4F5E06474
:10293000C4F30721C1F10404E3B20A4144789C4086
:10294000E1B28478144021430C07210E0E4C057827
:102950006155047804F01F050124AC4005786D1121
:10296000AD0005F1E025C5F8004109E0047804F068
:102970001F050124AC40054D0678761145F8264028
:1029800070BD00000CED00E000E400E080E100E03C
:1029900002490143024A1160704700000000FA0535
:1029A0000CED00E000211148C079BB281CD10F4A72
:1029B00092780E4BDB781A440C4B1B791A440B4B64
:1029C0005B79D018C21700EB12621212A0EB022240
:1029D000D1B206488079884203D10120044A1070A0
:1029E00002E00020024A10707047000088020020B8
:1029F0006C02002010B52DED048BB0EE080A1648CD
:102A000080ED000A90ED000ADFED140A20EE200AA6
:102A100080ED000A9FED120A124880ED000A90ED49
:102A2000000ADFED0E0A20EE200A10EE101A08460A
:102A3000FDF779FD41EC190B9FED0B0B53EC102BBF
:102A4000FDF702FD41EC180BFDF780FD054908601C
:102A5000BDEC048B10BD0000540100200000C842F2
:102A600000CC0D4150010020000000000070A74084
:102A700010B50320FFF708FC51490880084600887C
:102A800000F08CFC4E4908804E4801884C48008874
:102A9000FFF71CFF4C4908704A480088F0BB4B48C0
:102AA000D0ED000A4648008800EE100AB8EE400A51
:102AB00020EE800ABCEEC00A10EE100A40490880E1
:102AC0000846008800EE100AB8EE400A4048D0EDF3
:102AD000000AB4EEE00AF1EE10FA03D200203D49FC
:102AE000087016E03648008800EE100AB8EE400A7A
:102AF0003748D0ED000A30EE600ABCEEC00A10EE96
:102B0000100A3449087008460078642801DD642002
:102B10000870304800783049087000E004E008464A
:102B20000178012000F024FB254800882549088011
:102B3000254800780A2842DD2448D0ED000A2048C4
:102B4000008800EE100AB8EE400A20EE800ABCEEC3
:102B5000C00A10EE100A1A4908800846008800EEE4
:102B6000100AB8EE400A1A48D0ED000AB4EEE00AA6
:102B7000F1EE10FA03D200201649087016E0104852
:102B8000008800EE100AB8EE400A1148D0ED000AA5
:102B900030EE600ABCEEC00A10EE100A0D49087053
:102BA00008460078642801DD642008700948007830
:102BB0000949087008460178012000F0D9FA10BDD3
:102BC0005A0100205C0100205E010020500100201D
:102BD00054010020580100204C01002029B1064A70
:102BE00012680243044B1A6004E0034A12688243ED
:102BF000014B1A60704700003038024029B1064A84
:102C000012680243044B1A6004E0034A12688243CC
:102C1000014B1A60704700004038024029B1064A53
:102C200012680243044B1A6004E0034A12688243AC
:102C3000014B1A60704700002038024029B1064A53
:102C400012680243044B1A6004E0034A126882438C
:102C5000014B1A60704700004438024029B1064A0F
:102C600012680243044B1A6004E0034A126882436C
:102C7000014B1A607047000024380240F0B5002173
:102C800000220024022500260223324F3F6807F06D
:102C90000C0121B1042905D0082937D105E02E4FB8
:102CA000076036E02D4F076033E02A4F3F1F3F6833
:102CB000C7F38056274F3F1F3F6807F03F036EB1B1
:102CC000264FB7FBF3F7DFF88CC0ACF1040CDCF84F
:102CD00000C0CCF3881C07FB0CF40CE01E4FB7FBC4
:102CE000F3F7DFF870C0ACF1040CDCF800C0CCF3F3
:102CF000881C07FB0CF4174F3F1F3F68C7F30147C1
:102D00007F1C7D00B4FBF5F7076002E0124F0760FF
:102D100000BF00BF0F4F3F6807F0F0010909104FD7
:102D20007A5C0768D74047600A4F3F6807F4E05174
:102D3000890A0B4F7A5C4768D7408760054F3F6828
:102D400007F46041490B064F7A5C4768D740C7607B
:102D5000F0BD0000083802400024F40040787D01F6
:102D60007401002010B5FFF7C7FA01F0CDFE01F0A5
:102D7000A5FE00F09DFD10BD002007490870074921
:102D80000870074908700749087007490870074923
:102D900008700749088070479401002095010020C1
:102DA0009701002098010020990100209E01002039
:102DB000AC0100200C4909880C4A1288914206DDBA
:102DC00009490988094A1288891A88B205E0074921
:102DD0000988054A1288891A88B200F4004111B1A5
:102DE0004FF6FF71081A7047C6010020B20100209B
:102DF000024800880249088070470000C601002090
:102E0000B20100200E4909880E4A1288914206DD5F
:102E10000B4909880B4A1288891A88B205E00949CA
:102E20000988074A1288891A88B203E0A0F50C4184
:102E3000A03988B248F6A0418842F7DA704700000E
:102E4000C8010020B401002002480088024908801F
:102E500070470000C8010020B40100201CB580208C
:102E6000009000208DF8040001208DF807006946CD
:102E70000148FFF740F91CBD000402401CB580204A
:102E8000009001208DF8040000208DF8060003203A
:102E90008DF8050069460248FFF72DF91CBD0000BA
:102EA0000004024070B505460E46002404E000F020
:102EB00007F82855601CC4B2B442F8DB70BD0000AE
:102EC00010B5002400BF2021054800F023FE002893
:102ED000F9D0034800F0E4FEC4B2204610BD000063
:102EE000001401401CB54FF4E13000F0A3FD0121B6
:102EF0000220FFF773FE4FF40070009001208DF860
:102F0000040000208DF8060001208DF80700032042
:102F10008DF8050069460448FFF7EDF84FF400719D
:102F20000148FFF75EF91CBD0004024010B50446DD
:102F3000204600F0D3FC10BD70B505460E460024B7
:102F400004E0285DFFF7F2FF601CC4B2B442F8DB76
:102F500070BD000010B501204349087043A000F087
:102F6000ABF801204B49086000F034FA4A48C078B9
:102F70004F2877D101204749091D086001F07CFCEA
:102F800005214648FFF7D8FF04214548FFF78AFF8F
:102F90004348C078412865D101203E490831086086
:102FA00003213F48FFF77EFF3D480078FC2859D1B8
:102FB000012038490C310860394881783948FFF7D9
:102FC00071FF3848007821284CD121213648FFF77D
:102FD000B3FF04213248FFF765FF04213048FFF7B3
:102FE00061FF0AE02B48001D0068C0432F49C1F86B
:102FF000B4024FF4FA7001F03FFC2948C0784F2822
:10300000F0D127E005212A48FFF796FF0421244844
:10301000FFF748FF2248C07841281BD11D480068AF
:10302000C0432249C1F8B00203211D48FFF73AFF0F
:103030001B480078FC280DD11648001D0068C043CD
:103040001A49C1F8B402164881781648FFF72AFFDA
:1030500000F0ECFE044800780028D3D10421154884
:10306000FFF76AFF10BD000031010020D3EFD2F45A
:10307000CAB6B1F0B2E2CAD42CC7EBB7A2D3EFD232
:10308000F4BBBDD0D1B4CAA3ACD3EFD2F4BCDDCA7B
:10309000BB000000B0824342FA000020FE00002086
:1030A000F0000020F40000201001002000804342C6
:1030B00007010020030100207CB505462846FDF7E6
:1030C000A3F8C4B2FD208DF8000000208DF80100A7
:1030D000A01CC0B28DF8020001208DF80300002072
:1030E0008DF8040005216846FFF726FF2146284693
:1030F000FFF722FF04210D48FFF7D4FE03E004216F
:103100000A48FFF7CFFE0948C0784128F7D10421CB
:103110000648FFF7C7FE03E004210448FFF7C2FE9C
:103120000248C0784F28F7D17CBD0000F000002095
:1031300030B500228B071C0F0F2303FA04F20B4B50
:103140008C1053F824309343084C8D1044F82530EC
:1031500023468C1053F824308C07240F00FA04F413
:103160002343024C8D1044F8253030BD083801400F
:103170007CB505460C4603208DF8040001208DF82F
:1031800005008DF80640FEF7D1F9002003464FF404
:10319000F0720321009001A8FEF782F97CBD7CB596
:1031A00005460C46E8B28DF80400E8B28DF805003B
:1031B000E0B28DF80600E0B28DF80700FEF7B6F930
:1031C0000020034620220421009001A8FEF768F9A0
:1031D0007CBD000070B504460D462A4621460248D3
:1031E000FEF7FDFE70BD0000F003002038B5044678
:1031F0000D46FEF79BF9002003464FF4287229463E
:1032000000902046FEF74CF938BD000070B504462A
:103210000D462A4621460248FEF7E1FE70BD000039
:10322000100400200CB50020019000903448006884
:1032300040F480303249086000BF3148006800F433
:10324000003000900198401C0190009818B9019836
:10325000B0F5A04FF1D12A48006800F4003010B159
:103260000120009001E0002000900098012846D144
:1032700023484030006840F08050214940310860C8
:103280002048006840F440401E4908601C4808304F
:1032900000681B49083108600846006840F4004097
:1032A00008600846006840F4A05008601648091FEE
:1032B0000860081F006840F08070091F086000BFA8
:1032C0000F48006800F000700028F9D040F2057047
:1032D0000E4908600A480830006820F003000849D9
:1032E000083108600846006840F00200086000BF2E
:1032F00003480830006800F00C000828F8D10CBD25
:10330000003802400070004019544007003C024061
:1033100010B50446012C04D141030548FEF75FFFB8
:1033200005E024B94FF400510148FEF75AFF10BDE3
:103330000008024070B505460C46012D02D0022D52
:103340001AD10CE02CB14FF480610C48FEF747FF16
:1033500004E04FF480610948FEF743FF0CE02CB114
:103360004FF400610548FEF73AFF04E04FF40061B6
:103370000248FEF736FF00BF00BF70BD001C0240D0
:1033800010B50446FDF734FC4620FDF705FC204649
:10339000FDF702FCFDF748FC10BD000010B5024629
:1033A00000230B48828200210BE0094C481C34F8B2
:1033B000100024F81100204630F81100184483B2A0
:1033C000491C0A29F1DB0A2093FBF0F080B210BD02
:1033D0006803002008B5FD208DF8000000208DF85E
:1033E000010001208DF8020021208DF80300042146
:1033F0006846FFF7A1FD04210548FFF753FD044887
:10340000C078412803D104210248FFF74BFD08BDD5
:10341000F0000020FA0000200848006800F00100D9
:1034200008B90020704705488038006800F00100A6
:1034300008B90020F6E70120F4E70000800E00E064
:1034400000B50146FFF7E8FF40B14FF0604000785B
:1034500000F0010010B14FF06040017000BD0000AD
:1034600006480068401C054908600548006820B10E
:1034700003480068401E0249086070476801002048
:103480006C01002010B51548006840F47000134925
:1034900008601348006840F00100114908600020EE
:1034A0000F49083108600E4800680E4908400C4971
:1034B00008600D48091D0860081F006820F480207E
:1034C000091F0860002006490C310860FFF7AAFEBA
:1034D0004FF0006001498039086010BD88ED00E0C0
:1034E00000380240FFFFF6FE1030002410B5012125
:1034F0000E4800F048F8012816D10D480078401C0D
:103500000B49087008460078052809DD01200949A3
:1035100008700121054800F02AF8012006490870CA
:103520000121024800F020F810BD00000008004012
:1035300091010020920100208D01002010B5012191
:10354000074800F020F8012804D106480068401C14
:10355000044908600121024800F006F810BD00008F
:103560000010004038010020CA430282704721B198
:10357000028842F00102028004E002884FF6FE73E6
:103580001A400280704730B5024600200023002414
:10359000158A05EA0103958905EA010413B10CB106
:1035A000012000E0002030BD1AB183890B438381E4
:1035B00002E083898B4383817047000000220288E8
:1035C000184B98420ED0184B98420BD0B0F1804F58
:1035D00008D0164B984205D0154B984202D0154B97
:1035E000984204D14FF68F731A404B881A43124BFE
:1035F000984207D0114B984204D04FF6FF431A402F
:103600000B891A4302804B68C3620B880385054B04
:10361000984202D0044B984201D18B7A0386012351
:103620008382704700000140000401400004004014
:1036300000080040000C0040001000400014004052
:103640001CB501210420FFF7C9FA4FF40050009087
:1036500001208DF804008DF8070069460448FEF744
:103660004AFD4FF400510248FEF7BBFD1CBD0000AF
:103670000008024010B500F005F8FFF7E1FF00F088
:1036800017F810BD1CB501214020FFF7A7FA4FF431
:103690008070009000208DF8040001208DF8070054
:1036A00069460248FEF727FD1CBD000000000240ED
:1036B0001CB501218020FFF791FA4FF44060009083
:1036C00001208DF804008DF8070069460448FEF7D4
:1036D00012FD4FF440610248FEF783FD1CBD00005F
:1036E000001C024010B5044654B900206949087016
:1036F00001206949087000210846FFF750FDC7E026
:10370000002065490870E72C03D0F72C01D0EF2C7E
:1037100007D16248006862490860604800686149F2
:10372000086061480078022842D0F32C01D0FB2CBD
:103730000DD15A4800681E30594908605748006842
:103740001E385849086000205749087030E0F92CAD
:1037500001D0FD2C0DD15148006828305049086037
:103760004E4800683C384F49086000204E490870B8
:103770001EE0FC2C0DD149480068323048490860F1
:10378000464800685A384749086000204649087092
:103790000EE0FE2C0CD1414800683C3040490860E6
:1037A0003E48006878383F49086001203E4908706B
:1037B0003D480078012842D0CF2C0DD13748006811
:1037C0001E3038490860354800681E3834490860A2
:1037D00000203549087032E09F2C01D0DF2C0DD13C
:1037E0002E48006828302F4908602C4800683C3873
:1037F0002B49086000202C49087020E03F2C01D0A4
:10380000BF2C0DD125480068323026490860234876
:1038100000685A38224908600020234908700EE0E9
:103820007F2C0CD11D4800683C301E4908601B48A5
:10383000006878381A49086002201B490870FF2C7C
:103840001AD11A480088642810DD00201749088022
:1038500000210846FFF7A3FC00200E49087012481B
:10386000007860B904200C49087008E00F4800880F
:10387000401C0E49088002E000200C4908800548E1
:10388000007828B10748016805480068FEF7A8FAE3
:1038900010BD0000990100209E010020A801002019
:1038A000A0010020A40100209A0100209C0100201A
:1038B00010B500240748007801280AD10820FEF737
:1038C000F7FC0446214604A000F00CFFE0B2FFF72D
:1038D00009FF10BD9901002025750A0010B50446A6
:1038E00000BF8021054800F015F90028F9D0C4F385
:1038F0000801024800F0D9F9204610BD001401402B
:10390000024600215178107840EA012108467047AC
:10391000024600211178507840EA0121084670479C
:1039200070B505460E46002400BF285D00F072F811
:10393000601CC4B2B442F8DB70BD000010B5124880
:10394000007800BB40F22551104800F0F0F8012843
:1039500019D10E4800F0A4F90D490E4A1278885486
:103960000C480078401C0B49087008460078022873
:1039700004DB0020087001200349087040F2255143
:10398000024800F0ACF810BD3E01002000100140DC
:10399000400100203F01002010B540F22551184899
:1039A00000F0C5F801282AD11648007890B900F037
:1039B00081FF0A301449086000201449087010483B
:1039C00000F06EF91249114A1278885401200D490D
:1039D00008700FE00D480078C8280BDA084800F09E
:1039E0005FF9C1B209480078401CC0B2074A1070A4
:1039F000074A115440F22551014800F070F810BDFB
:103A0000004400408D010020640200208C01002051
:103A10008802002010B504462146054800F045F90B
:103A200000BF8021024800F075F80028F9D010BDD1
:103A3000004C004010B586B0044601210420FFF779
:103A4000CDF801212020FFF7F9F8082206211D48B2
:103A5000FEF799FB082207211A48FEF794FBC020C5
:103A6000049002208DF8140000208DF8160001202B
:103A70008DF8170003208DF8150004A91148FEF7F2
:103A80003AFB00940020ADF80C000C20ADF80A00C1
:103A90000020ADF80800ADF80600ADF80400694656
:103AA000094800F093F80121074800F027F8402169
:103AB000054800F00BF82021034800F007F806B095
:103AC00010BD0000000802400014014001F4007223
:103AD000B2F5007F00D100BFCA430280704710B525
:103AE0000022002340F66A14A14200D100BF0A124E
:103AF00001249440A3B2DC43048010BD21B182892B
:103B000042F40052828104E082894DF6FF731A402C
:103B10008281704702460020B1F5007F00D100BFCE
:103B200013880B400BB1012000E00020704770B5F6
:103B30000246002400230025002040F66A16B14208
:103B400000D100BFC1F3421501F01F03012606FAA0
:103B500003F3012D02D19689334006E0022D02D1F4
:103B6000168A334001E0968A33400C12012606FA89
:103B700004F41688344013B10CB1012000E0002099
:103B800070BDF0B50346002400260025002040F655
:103B90006A17B94200D100BF1846C1F3421401F0C0
:103BA0001F06012707FA06F5012C01D10C3004E0AD
:103BB000022C01D1103000E014301AB107682F43F5
:103BC000076002E00768AF430760F0BD2DE9FF47DB
:103BD00005460E460024A14600BFA046B08900B1AC
:103BE00000BF2C8A24F44054F08804432C82AC8912
:103BF00041F20C608443B0883189084371890843DD
:103C00000443AC81AC8A24F44074B0890443AC8290
:103C10006846FFF733F82048854202D01F488542A6
:103C200002D1DDF80C9001E0DDF80890A88900F4DD
:103C3000004040B109EBC90000EB091031684900B0
:103C4000B0FBF1F707E009EBC90000EB09103168A0
:103C50008900B0FBF1F76420B7FBF0F00401200904
:103C6000642101FB1078A88900F4004040B13220A3
:103C700000EBC800B0FBF1F000F00700044308E0DF
:103C8000322000EB08106421B0FBF1F000F00F00CF
:103C900004432C81BDE8FF8700100140001401405F
:103CA00001468888C0F308007047C1F3080282808B
:103CB00070470EB54FF4C060FEF76AFE012188031D
:103CC000FEF7BCFF04210120FFF732FA102001901B
:103CD00000208DF808000C208DF8090001208DF8D7
:103CE0000A0001A8FEF716F90A208DF8000000204E
:103CF0008DF8010007208DF8020001208DF80300E7
:103D00006846FEF709FE0EBD10B500F007F8532116
:103D1000092000F05FF8FFF7CCFF10BD1CB50121B2
:103D20000320FEF75BFF00220E211448FEF72BFA5A
:103D300000220D211148FEF726FA4FF400400090B2
:103D400001208DF8040000208DF8060001208DF878
:103D5000070003208DF8050069460848FEF7CBF9F7
:103D60001020009000208DF8040001208DF807003D
:103D700069460348FEF7BFF91CBD00000000024081
:103D80000004024010B501200E490860032000F035
:103D90007DFD00200C49C1F8BC0201210B48FFF752
:103DA000E6FB01210948FFF7DFFB00200849086016
:103DB0001E2000F061FD012002490860052000F08E
:103DC0005BFD10BDBC0240420000404200100040BC
:103DD000380100207FB505460C4601211020FEF772
:103DE0000DFF0295ADF804400020ADF8060001A9D2
:103DF0000D48FFF7E3FB36208DF8000000208DF81A
:103E0000010008208DF8020001208DF803006846AB
:103E1000FEF782FD012211460348FFF7C5FB002192
:103E20000148FFF7A4FB7FBD0010004010B5BA4861
:103E3000007808287AD2DFE810F0790008009303B0
:103E40009B03A603AE03B603BE03B348C078242881
:103E50006DD2DFE800F012171F272F373F47535F5F
:103E60006D7985919DA5ADB5C1C9DDF9EFEEEDEC9C
:103E7000EBEAE9E8E7E6E5E4E3E20421A748FFF737
:103E80005BF867E3A6A0FFF717F90421A348FFF743
:103E900053F85FE3A6A0FFF70FF904219F48FFF74F
:103EA0004BF857E3AAA0FFF707F904219B48FFF757
:103EB00043F84FE3AEA0FFF7FFF804219748FFF760
:103EC0003BF847E3B2A0FFF7F7F804219348FFF768
:103ED00033F83FE3B4A0FFF7EFF804218F48FFF772
:103EE0002BF837E30621B748FEF7B0FBB6A0FFF783
:103EF000E3F804218948FFF71FF82BE30821BA48AB
:103F0000FFF784F9B9A0FFF7D7F804218348FFF73A
:103F100013F81FE30821BC48FFF778F9BBA0FFF7AF
:103F2000CBF804217D48FFF707F813E34BE309E3DF
:103F30000821BD48FFF76AF9BCA0FFF7BDF80421CE
:103F40007648FEF7F9FF05E30821BF48FFF75EF961
:103F5000BEA0FFF7B1F804217048FEF7EDFFF9E2CB
:103F60000821C248FFF752F9C1A0FFF7A5F80421C4
:103F70006A48FEF7E1FFEDE20821C548FFF746F980
:103F8000C4A0FFF799F804216448FEF7D5FFE1E2E9
:103F9000C9A0FFF791F804216048FEF7CDFFD9E2F0
:103FA000CEA0FFF789F804215C48FEF7C5FFD1E2F7
:103FB000D3A0FFF781F804215848FEF7BDFFC9E2FE
:103FC000D7A0FFF779F84FF4FA7000F055FC042100
:103FD0005248FEF7B1FFBDE2D9A0FFF76DF804210A
:103FE0004E48FEF7A9FFB5E20621DD48FEF72EFB9D
:103FF0004FF4FA7000F040FC0621DA48FEF726FB89
:10400000D9A0FFF759F804214448FEF795FFA1E233
:104010000421DC48FEF71AFB0EE08BE282E279E233
:1040200078E06FE066E05DE054E04BE042E036E0CF
:104030002AE021E014E007E0D3A0FFF73DF80421D7
:104040003648FEF779FF85E20421D848FEF7FEFAEC
:10405000D7A0FFF731F804213048FEF76DFF79E271
:104060000421DB48FEF7F2FADAA0FFF725F8042175
:104070002A48FEF761FF6DE2E2A0FFF71DF8042178
:104080002648FEF759FF65E2E9A0FFF715F8EEA014
:10409000FFF712F804212148FEF74EFF5AE2F2A082
:1040A000FFF70AF804211D48FEF746FF0020F449F7
:1040B00008704FE2F3A0FEF7FFFF04211748FEF758
:1040C0003BFF47E204211548FEF736FF18A0FEF734
:1040D000F3FF3FE2F3A0FEF7EFFF04210F48FEF7E6
:1040E0002BFF37E2F7A0FEF7E7FF04210B48FEF7AE
:1040F00023FF2FE226A0FEF7DFFF04210748FEF78B
:104100001BFF27E2F7A0FEF7D7FF04210348FEF7C5
:1041100013FF1FE2F6E10000F40000200C01002074
:10412000D0A1B3B5C7B0BDF8D2D1CDEAB3C90000B4
:10413000D0A1B3B5BAF3CDCBD2D1CDEAB3C9A3AC3C
:10414000B5C8B4FDCFC2D2BBB2BDD6B8C1EE000077
:10415000D0A1B3B5D7F3D7AACDEAB3C9A3ACB5C83C
:10416000B4FDCFC2D2BBB2BDD6B8C1EE00000000D4
:10417000D0A1B3B5D3D2D7AACDEAB3C9A3ACB5C841
:10418000B4FDCFC2D2BBB2BDD6B8C1EE00000000B4
:10419000D2D1CDA3B3B5A3ACB5C8B4FDCFC2D2BB09
:1041A000B2BDD6B8C1EE0000D1B0BCA3D2D1CDEA29
:1041B000B3C9A3ACB5C8B4FDCFC2D2BBB2BDD6B8EB
:1041C000C1EE00009C000020B1A8BEAFC6F7D2D15E
:1041D000B4F2BFAAA3ACB5C8B4FDCFC2D2BBB2BDC6
:1041E000D6B8C1EE00000000B4000020B5C0D5A2D2
:1041F000D2D1B4F2BFAAA3ACB5C8B4FDCFC2D2BB72
:10420000B2BDD6B8C1EE0000BC000020B5C0D5A23A
:10421000D2D1B9D8B1D5A3ACB5C8B4FDCFC2D2BB49
:10422000B2BDD6B8C1EE0000C40000204C4544CF5A
:10423000D4CABED2D1BFAAA3ACB5C8B4FDCFC2D236
:10424000BBB2BDD6B8C1EE00CC000020BCC6CAB11E
:10425000CFB5CDB3D2D1B4F2BFAAA3ACB5C8B4FD2B
:10426000CFC2D2BBB2BDD6B8C1EE0000D400002090
:10427000BCC6CAB1CFB5CDB3D2D1B9D8B1D5A3AC34
:10428000B5C8B4FDCFC2D2BBB2BDD6B8C1EE000036
:10429000DC0000204C4544CFD4CABEBEE0C0EBD207
:1042A000D1CDEAB3C9A3ACB5C8B4FDCFC2D2BBB2BD
:1042B000BDD6B8C1EE000000D7F3B2E0CCE1CABE73
:1042C000B5C6D2D1B4F2BFAAA3ACB5C8B4FDCFC2B3
:1042D000D2BBB2BDD6B8C1EE00000000D3D2B2E06E
:1042E000CCE1CABEB5C6D2D1B4F2BFAAA3ACB5C8A0
:1042F000B4FDCFC2D2BBB2BDD6B8C1EE0000000043
:10430000CCE1CABEB5C6D2D1B9D8B1D5A3ACB5C877
:10431000B4FDCFC2D2BBB2BDD6B8C1EE0000000022
:10432000B7E4C3F9C6F7D2D1B4F2BFAAA3ACB5C8FB
:10433000B4FDCFC2D2BBB2BDD6B8C1EE0000000002
:10434000B7E4C3F9C6F7D2D1B9D8B1D5A3ACB5C8D3
:10435000B4FDCFC2D2BBB2BDD6B8C1EE00000000E2
:10436000E4000020EA000020B3B5C5C6D2D1CFD406
:10437000CABEA3ACB5C8B4FDCFC2D2BBB2BDD6B81D
:10438000C1EE000098000020CBEDB5C0C5C5B7E771
:10439000CFB5CDB3D2D1B4F2BFAAA3ACB5C8B4FDEA
:1043A000CFC2D2BBB2BDD6B8C1EE0000840000209F
:1043B000CDBCC6ACB7ADD2B3CDEAB3C9A3ACB5C81A
:1043C000B4FDCFC2D2BBB2BDD6B8C1EE0000000072
:1043D0008C000020B5F75B3D7469616F325DB9E216
:1043E000B5B55B3D64616E67335DCEBBD2D1BCD3E6
:1043F00031A3ACB5C8B4FDCFC2D2BBB2BDD6B8C133
:10440000EE000000BBB6D3ADCAB9D3C3B1B1BEA9EB
:10441000B0D9BFC6C8DA5B3D726F6E67325DB4B4A7
:10442000D3EFD2F4D6C7C4DCD0A1B3B500000000EE
:10443000BFAACABCD4ADB5D8B5F4CDB7A3ACC7EB51
:10444000C9D4BAF300000000D4ADB5D8B5F4CDB7E7
:10445000D2D1CDEAB3C9A3ACB5C8B4FDCFC2D2BBEB
:10446000B2BDD6B8C1EE0000BAC3B5C4A3ACBDE1BD
:10447000CAF8B1BEB4CED3EFD2F4BFD8D6C60000CE
:104480003101002020D0A1B3B5C7B0BDF8D2D1CD45
:10449000EAB3C9A3ACB5C8B4FDCFC2D2BBB2BDD6D6
:1044A000B8C1EE00D0A1B3B5D7F3D7AAD2D1CDEA27
:1044B000B3C9A3ACB5C8B4FDCFC2D2BBB2BDD6B8E8
:1044C000C1EE0000D0A1B3B5D3D2D7AAD2D1CDEAE4
:1044D000B3C9A3ACB5C8B4FDCFC2D2BBB2BDD6B8C8
:1044E000C1EE0000D0A1B3B5D1B0BCA3D2D1CDEA0A
:1044F000B3C9A3ACB5C8B4FDCFC2D2BBB2BDD6B8A8
:10450000C1EE000035A0FEF7D7FD04213B48FEF7C1
:1045100013FD1FE03AA0FEF7CFFD04213748FEF758
:104520000BFD17E041A0FEF7C7FD04213348FEF75D
:1045300003FD0FE045A0FEF7BFFD04212F48FEF765
:10454000FBFC07E04CA0FEF7B7FD04212B48FEF76B
:10455000F3FC00BF00BF04212848FEF7EDFC3AE061
:1045600045A0FEF7A9FD04212448FEF7E5FC32E052
:1045700046A0FEF7A1FD00204A49087004211F480B
:10458000FEF7DAFC27E048A0FEF796FD04211B4861
:10459000FEF7D2FC1FE04AA0FEF78EFD042117486B
:1045A000FEF7CAFC17E04BA0FEF786FD0421134876
:1045B000FEF7C2FC0FE042A0FEF77EFD04210F488B
:1045C000FEF7BAFC07E045A0FEF776FD04210B4894
:1045D000FEF7B2FC00BF00BF10BD0000D3D2D7AAC7
:1045E000CDE4D2D1CDEAB3C9A3ACB5C8B4FDCFC236
:1045F000D2BBB2BDD6B8C1EE000000000C01002055
:10460000BDFBD6B9D3D2D7AAA3ACD6B4D0D0D7F3FA
:10461000D7AACDE4CDEAB3C9A3ACB5C8B4FDCFC227
:10462000D2BBB2BDD6B8C1EE00000000D7F3D7AA06
:10463000CDE4D2D1CDEAB3C9A3ACB5C8B4FDCFC2E5
:10464000D2BBB2BDD6B8C1EE00000000BDFBD6B9EA
:10465000D7F3D7AAA3ACD6B4D0D0D3D2D7AACDE4BF
:10466000CDEAB3C9A3ACB5C8B4FDCFC2D2BBB2BD0D
:10467000D6B8C1EE00000000B6D4B2BBC6F0A3AC01
:10468000CED2C3BBCCFDC7E500000000BDF8C8EB2F
:10469000D0DDC3DFA3ACCBE6CAB1CEAAC4FAB7FE65
:1046A000CEF1000031010020C7EBB0B2BEB2A3AC26
:1046B000C2E9B7B3C4FAD4D9CBB5D2BBB1E90000D3
:1046C000B6D4B2BBC6F0A3ACC7EBD4D9CBB5D2BB82
:1046D000B1E90000CAB6B1F0C4DAB2BFB4EDCEF3AE
:1046E000000000000FB4054B10B503A9044A02985E
:1046F00000F018F810BC5DF814FB0000A548000895
:104700007402002002E008C8121F08C1002AFAD172
:1047100070477047002001E001C1121F002AFBD141
:10472000704700002DE9FF4F89B09B4604460025E5
:1047300006E025280BD05A460B999047641C6D1C47
:1047400020780028F5D10DB02846BDE8F08F00276D
:10475000B8460122474900E0074314F8013F203BD7
:1047600002FA03F00842F7D120782E2819D114F864
:10477000010F47F004072A280ED06FF02F0220788F
:10478000A0F1300109290CD808EB880102EB4101A6
:1047900000EB0108641CF2E70A98641C50F8048BD3
:1047A0000A9020780028CED0642808D0692806D046
:1047B00075281ED05A460B9990476D1C58E00A99EF
:1047C0004FF00A0901C90A91002802DA40422D215E
:1047D00002E0390504D52B218DF82010012103E0DA
:1047E000F90704D02021F7E78A4608AE0DE0002142
:1047F000FAE70A994FF00A0901C90A91F7E7494611
:10480000FBF7C0FE303106F8011D0028F7D1ADEBF3
:10481000060000F12009780701D44FF00108C845CF
:1048200002DDA8EB090000E000208046002706E03A
:1048300008A85A46C05D0B9990476D1C7F1C5745D0
:10484000F6DB04E030205A460B9990476D1CB8F116
:104850000001A8F10108F5DC05E016F8010B5A4645
:104860000B9990476D1CB9F10001A9F10109F4DC25
:10487000641C65E7092801000349086000BF02497C
:1048800009680029FBD170476C01002010B504466F
:10489000034800684443204600F006F910BD0000BC
:1048A0007001002000B502460B46D0B2FEF7C8FDED
:1048B000104600BD014800687047000068010020F4
:1048C00004490968884203D902490968401A00E08E
:1048D0000020704768010020002400250026FDF715
:1048E00047FEFFF7E7FF323062490860FFF7E2FF5B
:1048F000C83061490860FFF7DDFF401C5F49086070
:10490000FFF7D8FFC8305E49086055205D49087040
:10491000AA20487055205C49087002204870002188
:104920000846FEF73CFCA4E0FDF7EAFEFDF718FDA3
:10493000FDF708FE4F480068FFF7C2FF60B9FFF7B8
:10494000B9FF32304B4908605048006808B901206F
:1049500000E000204D49086047480068FFF7B0FFBD
:1049600030B9FFF7A7FFC83043490860FEF780F869
:1049700043480068FFF7A4FF00286ED1FFF79AFFB5
:10498000C8303F49086042480078002852D1414869
:1049900000783C498870FDF7A5FC3A49C870FFF7DC
:1049A000F1F93D490888C11700EB11610912A0EB2C
:1049B0000121344A117138490888C11700EB11618F
:1049C000090A5171FDF726FC04462046E11704EB65
:1049D00011610912A4EB01212A4A9171E11704EB3C
:1049E0001161090AD1712D4805882846E91705EBA0
:1049F00011610912A5EB01211172E91705EB116193
:104A0000090A5172264806883046F11706EB1161F3
:104A10000912A6EB01219172F11706EB1161090A47
:104A2000D1720C211046FEF7D5FB0C211548FEF77C
:104A300077FF12E01648007801280ED11948007857
:104A400001280AD10C211048FEF76AFF0C210E48FC
:104A5000FEF7C0FB00201349087008480068FFF704
:104A60002FFF30B9FFF726FF401C04490860FEF70E
:104A700079F959E7700000206C00002074000020D4
:104A800078000020500300205C030020BC824342D9
:104A9000600200209E0100203C010020C601002091
:104AA000C80100206102002008B5009000BF0099F5
:104AB0004A1E00920029FAD108BD000070B50024FA
:104AC00000250D480078A8B1FEF79CF90446FEF7D2
:104AD00071F905460948008884420BDB002006492D
:104AE000087007490870022006490870002108462E
:104AF000FEF755FB70BD000096010020AE010020BE
:104B0000B00100209E01002070B50024002508207F
:104B1000FDF7CEFB04462E48007801282AD140F24A
:104B2000262085420CDD002029490870294908709B
:104B300002202949087000210846FEF730FB46E0B4
:104B400004F0100080B92348007800283FD00020EE
:104B50001F4908701F49087002201F490870002172
:104B60000846FEF71CFB32E0FF2C30D1012019492A
:104B700008702CE019480078012828D140F226203E
:104B800085420CDD0020154908701249087002208A
:104B90001149087000210846FEF701FB17E004F0F8
:104BA000080078B90B48007888B100200B490870DC
:104BB0000849087002200849087000210846FEF7DD
:104BC000EEFA04E0FF2C02D101200249087070BD0A
:104BD00094010020B00100209E01002095010020DA
:104BE00001000000020000000400000008000000B6
:104BF00010000000200000004000000080000000C5
:104C00000001000000020000000400000008000095
:104C100000100000002000000040000000800000A4
:104C20000000010000000200000004000000080075
:104C30000000100000002000000040000000800084
:104C40000000000100000002000000040000000855
:104C50000000001000000020000000400000008064
:104C6000FEFFFFFFFDFFFFFFFBFFFFFFF7FFFFFF63
:104C7000EFFFFFFFDFFFFFFFBFFFFFFF7FFFFFFF34
:104C8000FFFEFFFFFFFDFFFFFFFBFFFFFFF7FFFF43
:104C9000FFEFFFFFFFDFFFFFFFBFFFFFFF7FFFFF14
:104CA000FFFFFEFFFFFFFEFFFFFFFBFFFFFFF7FF22
:104CB000FFFFEFFFFFFFDFFFFFFFBFFFFFFF7FFFF4
:104CC000FFFFFFFEFFFFFFFDFFFFFFFBFFFFFFF703
:104CD000FFFFFFEFFFFFFFDFFFFFFFBFFFFFFF7FD4
:104CE0000008040C020A060E0109050D030B070F4C
:104CF000104D000800000020780200006007000846
:104D0000E44D000878020020000700001447000866
:104D1000202D807F05FA807F1BE400FF0CF300FF4D
:104D200018E700FF5EA100FF45BA03051445DE92B7
:104D3000673478A2FD27FF1201000000FF13061060
:104D4000045503010D1302BB08100D02000003BB44
:104D5000550402A1B2C31808120318220408420025
:104D6000180014150400020006BBFF204E3430303A
:104D7000FF10593641330001017884100AFD00020A
:104D8000511FFD000152091310030900244411FDB5
:104D9000001E0101C6F4B6AFD3EFD2F4BFD8D6C619
:104DA000BCDDCABBA3ACC7EBB7A2B3F6D6B8C1EEA5
:104DB0000001200501020304045405060708090741
:104DC000023C0852100AC003E0078002E007A0047A
:104DD0001007E000E0070001081104C56C067B30F5
:044DE00070810100DD
:040000050800018965
:00000001FF
