:020000040800F2
:10000000B80E00209D010008A5010008A701000806
:10001000A9010008AB010008AD01000800000000C4
:10002000000000000000000000000000AF01000818
:10003000B101000800000000B3010008B50100088C
:10004000B7010008B7010008B7010008B7010008B0
:10005000B7010008B7010008B7010008B7010008A0
:10006000B7010008B701000891260008B701000891
:10007000B7010008B7010008B7010008B701000880
:10008000B7010008B7010008B7010008B701000870
:10009000B7010008B7010008B7010008B701000860
:1000A000F53E0008153F0008B7010008B701000839
:1000B000B7010008B7010008B7010008B701000840
:1000C000B7010008B7010008B7010008B701000830
:1000D000B701000891430008ED430008B70100088C
:1000E000B7010008B7010008B7010008B701000810
:1000F000B7010008B7010008B7010008B701000800
:10010000B7010008B7010008B7010008B7010008EF
:1001100081430008B7010008413F00086D3F000817
:10012000B7010008B7010008B7010008B7010008CF
:10013000B7010008B7010008B7010008B7010008BF
:10014000B7010008B7010008B7010008B7010008AF
:10015000B7010008B7010008B701000819450008F9
:10016000B7010008B7010008B7010008B70100088F
:10017000B7010008B7010008B7010008B70100087F
:10018000B7010008B7010008DFF80CD000F090F9C3
:100190000048004705510008B80E00200648804777
:1001A00006480047FEE7FEE7FEE7FEE7FEE7FEE75C
:1001B000FEE7FEE7FEE7FEE7193E000889010008BA
:1001C00040EA01039B0703D009E008C9121F08C0D9
:1001D000042AFAD203E011F8013B00F8013B521E59
:1001E000F9D27047D2B201E000F8012B491EFBD2D0
:1001F00070470022F6E710B513460A460446194632
:10020000FFF7F0FF204610BD2DE9F04D81EA030411
:1002100004F0004B21F0004514464FF0000A23F093
:10022000004150EA050220D054EA01021DD0C5F376
:100230000A570246C5F31303C1F31300C1F30A566C
:1002400040F4801543F48013A7EB0608101BD64634
:1002500008F2FD3873EB050002D308F1010801E054
:1002600092185B41B8F1000F03DA00200146BDE8A7
:10027000F08D00204FF48011064684460EE0171BD7
:1002800073EB050705D3121B63EB050306434CEA2A
:10029000010C49084FEA300092185B4150EA01070F
:1002A000EDD152EA030012D082EA040083EA05018C
:1002B000084305D0101BAB4106D20122002306E003
:1002C00000224FF0004302E06FF0010253101AEBDE
:1002D00006004CEB085110EB0A0041EB0B01BDE8A6
:1002E000F04D00F087B80EB5C10F80EAE070084409
:1002F000CA07002140F233438DE80E000A460B4640
:1003000000F087F803B000BD00F0004230F000407C
:100310000AD0C10D01F56071C0F3160042EA015127
:10032000C20840071143704700200146704701F0A2
:10033000004330B421F0004150EA010206D00A0D1A
:10034000A2F56072C1F31301002A02DC30BC002068
:100350007047440F44EAC104C100E01830BC00EB10
:10036000C25000F010B8202A04DB203A21FA02F033
:100370000021704721FA02F3D040C2F120029140DF
:100380000843194670470029A8BF7047401C490020
:1003900008BF20F00100704710B4B0FA80FC00FAEA
:1003A0000CF050EA010404BF10BC704749B1CCF115
:1003B000200421FA04F411FA0CF118BF01212143A1
:1003C0000843A3EB0C01CB1D4FEA00614FEA10205C
:1003D00042BF002010BC704700EBC35010440029FE
:1003E000A4BF10BC7047401C490008BF20F00100AA
:1003F00010BC704710B5141E73F1000408DA401CDD
:1004000041F1000192185B411A4301D120F0010033
:1004100010BD2DE9F04D92469B4611B1B1FA81F223
:1004200002E0B0FA80F22032904600F053F8044621
:100430000F4640EA0A0041EA0B0153465A46084378
:1004400013D0114653EA010019D0C8F140025046BA
:10045000FFF789FF05460E4650465946424600F0D2
:1004600039F8084305D0012004E020463946BDE8AC
:10047000F08D0020054346EAE0762C4337430A9886
:100480006305E40AA0EB08000022FD0A44EA475491
:100490000A3002D500200146E9E70105101969413B
:1004A000DDE9084500196941BDE8F04DA2E700000B
:1004B000064C074D06E0E06840F0010394E80700B1
:1004C00098471034AC42F6D3FFF762FE645500083B
:1004D00084550008202A04DB203A00FA02F10020AB
:1004E00070479140C2F1200320FA03F31943904072
:1004F000704770B58D1810F8014B14F0030201D14C
:1005000010F8012B231106D110F8013B03E010F87D
:10051000016B01F8016B521EF9D1ABB110F8012B40
:1005200004F00C048A1A0C2C03D0A2EB84129B1C3E
:1005300008E010F8014BA2EB0422F8E712F8014B97
:1005400001F8014B5B1EF9D5A942D4D3002070BD40
:10055000CA430260704721B1826842F001028260A2
:1005600003E0826822F00102826070470021084A9D
:100570001168084A1140D0E900231A4383681A43DE
:10058000C3681A431143044AC2F8041370470000B9
:1005900004230140E030FCFF0020014000B58DB095
:1005A0000121084603F0CEF80121080203F0FAF811
:1005B0004020019003208DF8080000208DF80B00EA
:1005C00001A9174802F0A1F90020039004900690B9
:1005D000059003A8FFF7CAFF0121080203F0F2F813
:1005E00000214FF4807003F0EDF800208DF820001A
:1005F00007908DF8210009900B9001208DF83000B4
:1006000007A9084800F01EF80623012219460548EC
:1006100000F042F801210348FFF79DFF0DB000BD37
:1006200000000240002001400146C86C80B27047C3
:100630000246002013680B400BB1012000E00020AF
:100640007047000030B50246002000235068104C6F
:1006500020400D790C6844EA0524204350609068DE
:100660000C4C2040D1E903542C438D682C434D7928
:1006700044EA450420439060D06A20F470000C7D69
:10068000641EE4B2234340EA0350D06230BD000050
:10069000FFFEFFFCFDF7FFC0F0B504460D4600204D
:1006A0000021092D11DDE068A5F10A0606EB4607D9
:1006B000072606FA07F18843A5F10A0606EB460667
:1006C00003FA06F10843E0600CE0206905EB4507FA
:1006D000072606FA07F1884305EB450603FA06F1FB
:1006E00008432061072A0FDA606B561E06EB860767
:1006F0001F2606FA07F18843561E06EB860605FA02
:1007000006F10843606322E00D2A0FDA206BD61F42
:1007100006EB86071F2606FA07F18843D61F06EB6D
:10072000860605FA06F10843206310E0E06AA2F1AC
:100730000D0606EB86071F2606FA07F18843A2F18D
:100740000D0606EB860605FA06F10843E062F0BDE9
:10075000816841F0804181607047000070B50023DE
:10076000224A1278082A03DA0022214C22703BE048
:10077000002034E01F4A125C552A2ED11D4CC21DA8
:10078000A25CBB2A29D12546841C2D5D194EC41CB0
:10079000345D2544041D345D2544441D345D2A190F
:1007A000D41702EB14642412A2EB0424E3B23446FF
:1007B000821DA25C9A420DD1002105E00A180D4C61
:1007C000A25C62544A1CD1B20829F7DB0122084C12
:1007D000227002E00022064C2270421CD0B2034A72
:1007E0001278D21F8242C5DA70BD0000F4040020E6
:1007F0000A0500202809002010B500F009F80120A2
:1008000003F0CCFA00200149086010BDBC0243424D
:100810001CB50121422002F095FF402000900120EC
:100820008DF8040000208DF8060003208DF80500E7
:1008300069460A4802F069F84FF400400090012030
:100840008DF8040000208DF8060003208DF80500C7
:100850006946024802F059F81CBD0000000402403D
:1008600010B503F0FFF8012008490860022004F0E9
:1008700007FC0748D0F81C02C4B2002003490860F6
:10088000022004F0FDFB204610BD0000988240428B
:100890000080404270B5002403F0E4F801201049C4
:1008A0000860002517E06006040E01200C49091FAE
:1008B0000860022004F0E4FB0A48D0F81C0208B1EA
:1008C000601CC4B200200649091F0860022004F021
:1008D000D7FB681CC5B2082DE5DB204670BD0000C3
:1008E0009C8240420080404210B5044603F0CAF8A2
:1008F0001CB101200A49086002E000200849086094
:1009000001200749091F0860022004F0B9FB0020FC
:100910000449C1F89802022004F0B2FB10BD0000A7
:100920009C8240420080404270B5044603F0AAF821
:1009300000251BE004F080061EB101200E4908606E
:1009400002E000200C4908606006040E01200A49FC
:10095000091F0860022004F093FB00200749C1F83A
:100960009802022004F08CFB681CC5B2082DE1DB64
:10097000FFF776FF70BD00009C824042008040423D
:1009800010B503F07FF80120094908600949C1F852
:100990009802042004F074FB00200549086004203C
:1009A00004F06EFB00200349C1F8980210BD00005E
:1009B0009C8240420080404210B503F063F8002062
:1009C0000749086001200749C1F89802042004F093
:1009D00057FB012002490860042004F051FB10BDC0
:1009E0009C8240420080404270B5044600250521AB
:1009F0001C4803F0FFFD4FF4FA7004F01BFB04F0F9
:100A000071F9194908704FF4FA7004F013FB4FF4B0
:100A1000FA7004F00FFB4FF4FA7004F00BFB24B9EA
:100A20000121202004F096FA03E02146102004F072
:100A300091FA00200C49087013E0012004F0FAFA42
:100A4000681C85B204F04EF9074908700846007822
:100A500018B941F27070854203DD00250248007824
:100A600070BDEAE7FD0100200202002010B503F08E
:100A7000FBFC10BD10B504460B48844209D101218E
:100A8000480602F07FFE00214FF0007002F07AFE6F
:100A900008E00121880602F075FE00214FF0806019
:100AA00002F070FE10BD00000064004010B500218F
:100AB000837A012202FA03F13D4A126842F00102F0
:100AC0003B4B1A603A4A1C3212688A43384B1C333B
:100AD0001A60027BCAB9364A0C3212688A43344B18
:100AE0000C331A604288C38842EA0343304A4032DA
:100AF000847A42F834300288838842EA03432C4ADD
:100B00004032847A02EBC4025360027B012A19D17D
:100B1000274A0C3212680A43254B0C331A6042886C
:100B2000038842EA0343224A4032847A42F834304E
:100B3000C288838842EA03431D4A4032847A02EB2A
:100B4000C4025360C27A3AB9194A121D12688A4324
:100B5000174B1B1D1A6006E0154A121D12680A4346
:100B6000134B1B1D1A60028932B9114A14321268E4
:100B70008A430F4B14331A600289012A06D10C4AAA
:100B8000143212680A430A4B14331A60427B012A5A
:100B900006D1074A1C3212680A43054B1C331A60FF
:100BA000034A126822F00102014B1A6010BD0000D6
:100BB000006600401AB143690B43436102E0436998
:100BC0008B434361704730B5024600200023146810
:100BD00024F002041460146844F00104146000E07E
:100BE0005B1C546804F001041CB94FF6FF74A34267
:100BF000F6D1546804F001040CB900206CE08C7943
:100C0000012C04D1146844F08004146003E01468DB
:100C100024F080041460CC79012C04D1146844F0D1
:100C20004004146003E0146824F0400414600C7A5B
:100C3000012C04D1146844F02004146003E014680B
:100C400024F0200414604C7A012C04D1146844F080
:100C50001004146003E0146824F0100414608C7A0B
:100C6000012C04D1146844F00804146003E01468F3
:100C700024F008041460CC7A012C04D1146844F0E8
:100C80000404146003E0146824F0040414608C78F5
:100C9000A407CD7844EA05640D7944EA05444D790A
:100CA00044EA05540D886D1E2C43D461146824F069
:100CB00001041460002300E05B1C546804F001048C
:100CC0001CB14FF6FF74A342F6D1546804F001043E
:100CD0000CB1002000E0012030BD0246002019B90F
:100CE000D36803F0030006E0012903D1136903F080
:100CF000030000E00020704710B500F5D87303EB47
:100D000001131B6803F004031372137A53B900F53F
:100D1000D87303EB01131B6840F2FF7404EA5353CA
:100D2000136009E000F5D87303EB01131B686FF043
:100D3000604404EAD303536000F5D87303EB011356
:100D40001B6803F00203537200F5D87303EB011321
:100D50005B6803F00F03937200F5D87303EB011384
:100D60005B681B0AD37400F5D87303EB01139B680F
:100D7000D37200F5D87303EB01139B681C0A14733C
:100D800000F5D87303EB01139B681C0C547300F53A
:100D9000D87303EB01139B681B0E937300F5D87394
:100DA00003EB0113DB68D37300F5D87303EB011376
:100DB000DB681C0A147400F5D87303EB0113DB68BD
:100DC0001C0C547400F5D87303EB0113DB681B0E85
:100DD000937421B9C36843F02003C36003E003693F
:100DE00043F02003036110BD10B502460020936854
:100DF00003F08063B3F1806F00D110E0936803F0DB
:100E00000063B3F1006F01D1012008E0936803F0A3
:100E10008053B3F1805F01D1022000E00420042858
:100E200074D002F5C07303EB00131B6803F00104D8
:100E300002F5C07303EB00131C600B7A7BB94B7A8D
:100E40000C8843EA445302F5C07404EB0014246890
:100E5000234302F5C07404EB0014236010E00B7A06
:100E60004C6843EAC4034C7A234302F5C07404EB94
:100E700000142468234302F5C07404EB00142360BB
:100E80008B7A03F00F038B7202F5C07303EB001330
:100E90005B6823F00F0402F5C07303EB00135C6082
:100EA00002F5C07303EB00135B688C7A234302F5F1
:100EB000C07404EB001463608B7B1C064B7B44EA1C
:100EC00003440B7B44EA0323CC7A234302F5C0742A
:100ED00004EB0014A3608B7C1C064B7C44EA0344A7
:100EE0000B7C44EA0323CC7B234302F5C07404EB60
:100EF0000014E36002F5C07303EB00131B6843F0BA
:100F0000010402F5C07303EB00131C6010BD000068
:100F100010B50246002321B1012907D002290FD1C3
:100F200009E090681D4C00EA04030BE090681C4C3B
:100F300000EA040306E090681A4C00EA040301E0AA
:100F4000002300BF00BF184C181BA34216D007DCBB
:100F500083B16FF08060184470B1022818D111E09D
:100F6000B0F5007F10D0114C204448B1B0F5003FDF
:100F70000ED10BE002230DE000230BE0002309E07B
:100F8000002307E0012305E0012303E0012301E042
:100F9000002300BF00BFD8B210BD00000300000452
:100FA0000003000800000310000100080001FFF723
:100FB0002DE9FF4705460E464FF0000A06B10DB970
:100FC0004FF0010A9448007800F00F00032801DD7B
:100FD0004FF0010A90480078C0F30019BAF1000FF1
:100FE00019D000208DF80A008DF80B0001208DF833
:100FF0000C000020ADF80000ADF80200ADF80400D0
:10100000ADF80600ADF8080001208DF80D00684627
:10101000FFF74CFDFEE00020ADF8080001208DF840
:101020000D004FF000080024F2E07B48007800F04B
:101030000F0030B101283BD002287BD0032874D1A7
:101040009CE000208DF80B008DF80C0035F8240092
:101050004B460022114600F0E1F8ADF8020005EB26
:10106000840148884B460022114600F0D7F8ADF8BD
:101070000600601CC0B20446B04213DA35F8240002
:101080004B460022114600F0C9F8ADF8000005EB10
:10109000840148884B460022114600F0BFF8ADF8A5
:1010A000040004E00020ADF80600ADF804009CE068
:1010B00001208DF80B0000208DF80C0035F824007D
:1010C0004B460022114600F0A9F8ADF80200601C62
:1010D000C0B20446B04207DA35F824004B4600227D
:1010E000114600F09BF800E00020ADF80600601CFF
:1010F000C0B20446B04207DA35F824004B4600225D
:10110000114600F08BF800E00020ADF80000601CF4
:10111000C0B20446B04209DA35F824004B4600223A
:10112000114600F07BF802E004E051E00020ADF849
:1011300004005AE000208DF80B0001208DF80C000F
:1011400035F824004B460022114600F081F807468E
:10115000B8B2ADF80200380CADF8000005EB840120
:1011600048884B460022114600F072F80746B8B294
:10117000ADF80600380CADF8040036E001208DF81B
:101180000B008DF80C0035F824004B460022114668
:1011900000F05EF80746B8B2ADF80200380CADF8C2
:1011A0000000601CC0B20446B04208DA05EB8401BE
:1011B00048884B460022114600F04AF800E0002023
:1011C0000746B8B2ADF80600380CADF804000CE0E4
:1011D0000020ADF80200ADF80000ADF80600ADF853
:1011E000040034464FF0010A00BF00BF8DF80A80AA
:1011F0006846FFF75BFCB44202DA601CC4B200E050
:1012000007E008F10100C0B280460D2800DB00E0D5
:101210000BE700BFBDE8FF879C03002010B5044624
:10122000C4F309040AB1102000E0002002460BB10B
:10123000082000E00020034613B1C1F3C13000E0F4
:101240000020014642EA44101843084380B210BD12
:1012500010B50446C4F309040AB1022000E00020DE
:1012600002460BB1042000E00020034613B18803BE
:10127000C00A00E00020014642EA44301843084317
:1012800010BD000010B500210148FFF726FD10BD7C
:101290000064004070B50446002554B100210648A2
:1012A000FFF71BFD054625B1224600210248FFF746
:1012B00023FD284670BD0000006400402DE9F04782
:1012C00006460C4617469846DDF820904FF0000A77
:1012D00015480760C0F8048000201349087248725E
:1012E00008468472224631460B30FEF769FF0E49EC
:1012F0000E48FFF779FD0546042D09D04FF0010A8D
:1013000029460A48FFF704FE012801D14FF0020ADE
:10131000BAF1010F04DBB9F1000F01D089F80050D8
:101320005046BDE8F0870000CC0600200064004075
:101330000448006800F0E05008B101207047002028
:10134000FCE700000864004010B501E000F006F87A
:10135000FFF798FF0028F9D110BD000010B5244810
:10136000FFF798FF2248C07C20B101280AD002284C
:1013700018D10FE01E48827A00F10B011D4801F0E0
:1013800038FA24E01A48827A00F10B011A4801F079
:1013900030FA1CE01648827A00F10B01174801F080
:1013A00028FA14E01248C07C03280FDB1048C07CE8
:1013B00006280BDC0E48C07CC01E114901EBC000A2
:1013C0000B490B310A6802604968416000BF00BFE9
:1013D0000748C07C062809DC0548C07C094951F84B
:1013E00020000949096808430749086010BD00004A
:1013F00040080020F40600200407002024070020F5
:101400005408002054540008A003002000B5034AEB
:101410005178107801F09EFD00BD000054080020B6
:10142000F8B5FFF785FF00285FD00026002559E0BA
:101430002E4890F9000030B101280ED002281ED0AD
:10144000032840D12DE000F05DF80746002F03DBB4
:101450000126F8B200F07AF839E00822244925483C
:1014600001F0B2F9C4B24CB10126234800234FF475
:101470002072214600901E48FFF720FF27E0082237
:101480001B491E4801F0A0F9C4B24CB101261A480C
:1014900000234FF42872214600901548FFF70EFFF5
:1014A00015E008221249164801F08EF9C4B24CB179
:1014B0000126114800234FF47072214600900C4819
:1014C000FFF7FCFE03E0FF200849087000BF00BFE3
:1014D00006480078401C40B20449087006B103E099
:1014E000681CC5B2042DA3DD00BFF8BDD4030020E5
:1014F000A403002014070020D50300203407002097
:10150000F40600204FF0FF30002109E001EB8102DA
:10151000054B13F822200AB148B203E04A1CD1B2AD
:101520000729F3DB00BF704774080020002007E0A4
:10153000002100EB8002044B03F82210411CC8B2CA
:101540000728F5DB7047000074080020F8B5044652
:10155000002004EB84050E4E06EB850500902B69F8
:1015600004EB840506EB8505EA6804EB840516F8B0
:10157000251004EB840506EB8505681CFFF79EFE2D
:10158000002004EB8401324602F82100F8BD00007F
:10159000740800202DE9F04104460F4615461E460A
:1015A000DDF81880072C1ADA04EB84000D4901F8E5
:1015B000205004EB84010B4A02EB8101481C2A46AF
:1015C0003946FEF7FDFD04EB8400064901EB80007F
:1015D000C66004EB840001EB8000C0F81080BDE819
:1015E000F08100007408002010B50D4A32210D482A
:1015F00000F02AF80C4A32210C4800F025F80C4A79
:1016000032210C4800F020F80B4A32210B4800F040
:101610001BF80B4A32210B4800F016F810BD0000F1
:1016200044070020F406002076070020040700206D
:10163000A807002014070020DA0700202407002054
:101640000C0800203407002070B504460E461546ED
:101650002660E5600021204601F005F970BD00001C
:1016600038B5FFF771FE68E0FFF76EFE002462E018
:10167000344850F82400344909680840002858D0FC
:10168000072C4DD2DFE804F0040C1824273946005B
:1016900000BF69462D4801F0F8F80028F9D13FE075
:1016A00003E09DF8000000F07BFA6946284801F04D
:1016B000ECF80028F5D133E003E09DF8000000F0DD
:1016C00079FB6946234801F0E0F80028F5D127E0CE
:1016D000FFF79CFE24E0204802F04AFE1F490880E4
:1016E00005E01E480088A0F561601C4908801B4881
:1016F0000088B0F5616FF4DA12E017480838007C12
:10170000022806D11448093002F02AFE00B214491A
:10171000088005E010480838007E012800D100BF8D
:1017200000BF104850F824000749096808400649DE
:101730000860601CC4B2062C9ADD034800680028CB
:1017400092D138BD54540008A0030020F4060020B4
:1017500004070020240700205C080020B0030020BC
:10176000AE030020D454000810B5002006490860DC
:101770000649087007210648FFF71AFCFFF734FFF7
:10178000FFF7D4FE10BD0000A00300209C03002042
:10179000B203002010B5EB480078E0B1EA480068D9
:1017A00003F0A4FCB8B9E9480078FD2807D1E8485F
:1017B0000078401CC1B2E54802F00CFA08E0E348AA
:1017C0000078552802D101F01FFE01E0FEF7C6FFA8
:1017D0000020DC490870DF48007801287ED1DB4812
:1017E0004078AA287BD1D9488078122878D00CDCA0
:1017F000122876D2DFE800F07522295896B2CFE49D
:10180000E5FE757575757575FDFC61286AD00CDC93
:10181000402868D004DC202866D0302861D15FE100
:1018200050287BD05128F9D165E1622877D0632810
:1018300076D0802875D0A028F0D175E10021084627
:1018400002F092F902F0BCF873E102F0F7F8002020
:10185000C14908700120C14908700020C0490870C2
:10186000C0490870C0490870C0490870C049087074
:10187000B6484079BF490880084600884FF6FF7196
:1018800001EA0020BB490880B04800790988084374
:10189000B8490880AD48C078B74908600846016873
:1018A000006800F06CFE44E102F0C8F80020AA498C
:1018B0000870AA490870AA490870AA490870AA497C
:1018C00008700120A94908700020A94908709F48A4
:1018D0004079A84908800846008806E031E129E1FE
:1018E000EEE025E10CE100E1EFE04FF6FF7101EAE7
:1018F0000020A049088095480079098808439D493F
:1019000008809248C0789C490860084600684142B7
:1019100099480068404200F032FE0AE1E6E0F4E057
:10192000F8E0FCE000208C4908708C490870012028
:101930008B49087000208B4908708B4908708B49CF
:1019400008708B4908708148C0788B490860084648
:1019500001680068404200F012FEEAE000207E4983
:1019600008707E4908707E49087001207D49087022
:1019700000207D4908707D4908707D4908707348D2
:10198000C0787D4908600846006841427A4800688E
:1019900000F0F5FDCDE000206F4908706F49087038
:1019A0006F4908706F4908706F4908706F49087077
:1019B00001206F4908706548C0786F490860B8E039
:1019C000B7E002F045F802F039F8002062490870EB
:1019D00062490870624908706249087001206249D2
:1019E000087000206149087061490870574802E09A
:1019F0005BE04FE01BE040796049088008460088C2
:101A00004FF6FF7101EA00205C4908804F480079D9
:101A100009880843594908804C48C07856490860ED
:101A2000084601680068404202F09EF881E002F03A
:101A30000FF802F003F80020474908704749087082
:101A4000474908704749087001204749087000203D
:101A500046490870464908703C4840794749088023
:101A6000084600884FF6FF7101EA002043490880CC
:101A70003648007909880843404908803348C078CF
:101A80003D4908600846006841423B48006802F052
:101A90006BF84EE02D48C078394908702B48007922
:101AA00048702A484079887043E02848C078344913
:101AB000C87026480079087124484079487138E098
:101AC00006212F4801F06CFA33E02048C17801204C
:101AD00002F03EF91D480179022002F039F928E0B0
:101AE0001A49C87802F022F923E022E004212548AF
:101AF00001F056FA1DE00421234801F051FA18E0E4
:101B00000421224801F04CFA13E00421204801F09E
:101B100047FA0EE004211F4801F042FA09E00B48A1
:101B2000C0781D49087004E001201C49087000E0DD
:101B300000BF03E00821054802F04CF800200549E9
:101B4000087010BDF5040020FC04002028090020C6
:101B5000F40400200A0500207E0300207703002003
:101B60007403002075030020760300207803002012
:101B7000790300208C030020880300208E030020BE
:101B80000B050020CC040020D4040020D803002042
:101B9000DC030020E0030020F804002037010020CF
:101BA00010B504460F48007870B903F099FA0A306E
:101BB0000D49086000200D4908700D48097844540B
:101BC0000120084908700BE008480078C82807DAA7
:101BD00006480078401CC0B20449087004490C54FF
:101BE00010BD0000F5040020FC040020F4040020D7
:101BF0002809002010B568480078002879D0674887
:101C0000006803F073FA002873D165484078032810
:101C100008D163488078012803D16148007961497F
:101C20000870B5E05E4840780C280CD15C4880789C
:101C30000128F6D15A48C0780128F2D158480079D5
:101C400058490870A4E0564840780E2808D15448F6
:101C50008078012804D1524800795249087097E0F1
:101C60004F48407810280CD14D488078102808D172
:101C70004B48C0780128D4D14948007949490870B7
:101C800086E0474840780D2858D145488078032899
:101C900054D14348C07801281BD14148007901281C
:101CA00006D0022808D003280AD0042810D10BE05F
:101CB00009203C4908700BE00A203A49087007E007
:101CC0000B203849087003E00C203649087000BF2B
:101CD0005EE03348C07802285AD1314800790128A3
:101CE00008D12F484079012804D111202D490870CE
:101CF0004EE050E02A480079022807D12848407970
:101D0000022803D122202749087041E024480079A5
:101D1000012807D122484079022803D11220214905
:101D2000087035E01E480079022831D11C484079FE
:101D300001282DD121201B49087029E0184840783E
:101D4000072808D116488078012804D11448C078A3
:101D5000154908701CE01248007855280CD110482D
:101D60004078022808D132220D491048FEF728FA9F
:101D700001200F4908700BE009484078062807D178
:101D800007488078012803D10548C07805490870C4
:101D900000200149087010BDF70400200005002054
:101DA000F00900207E030020350100205A060020A3
:101DB000F904002010B504460F48007870B903F00C
:101DC0008FF90A300D49086000200D4908700D4850
:101DD000097844540120084908700BE0084800784D
:101DE000C82807DA06480078401CC0B204490870C9
:101DF00004490C5410BD0000F70400200005002029
:101E0000F6040020F00900207FB505460C460121AC
:101E1000202001F0A7FC0295ADF804400020ADF8A9
:101E20000600ADF80C008DF80E0001A90D4802F077
:101E3000D7F837208DF8000000208DF8010004202D
:101E40008DF8020001208DF80300684601F096FA33
:101E500001221146034802F0B9F80121014802F0BD
:101E600098F87FBD0014004010B5FFF7F9FBFFF7AD
:101E7000D7FA10BD70B504460D4601F0DFFD002015
:101E8000104908701049087010490870104908700E
:101E90001049087001201049087000200F4908708F
:101EA0000F4805800F480460006841420D480068F3
:101EB000404200F064FB00BF024800780328FBD1D9
:101EC00070BD00007E030020770300207403002013
:101ED000750300207603002078030020790300209A
:101EE0008C0300208803002070B504460D4601F0E5
:101EF000A5FD00200E49087001200E490870002041
:101F00000D4908700D4908700D4908700D49087099
:101F10000D4908700D4805800D480460016800688F
:101F200000F02DFB00BF024800780328FBD170BDF4
:101F30007E03002077030020740300207503002037
:101F40007603002078030020790300208C03002012
:101F50008803002010B50446642003F06BF80020CD
:101F60000E4908700E49087001200E4908700020C3
:101F70000D4908700D4908700D4908700D49087029
:101F80000D48046001680068404200F0F8FA00BFA4
:101F9000024800780228FBD110BD00007E0300201B
:101FA00077030020740300207503002076030020CF
:101FB00078030020790300208803002070B50446D0
:101FC0000D46642003F036F86142204601F0CCFD56
:101FD000284603F02FF80021084601F0C5FD6420D3
:101FE00003F028F870BD000010B50446642003F02B
:101FF00021F8002010490870104908701049087035
:1020000001201049087000200F4908700F4908701E
:102010000F4908700F480460006841420D4800688D
:1020200000F0ADFA00BF044800780228FBD164201C
:1020300003F000F810BD00007E03002077030020AD
:10204000740300207503002076030020780300202D
:1020500079030020880300201FB5F748007809287D
:102060007ED006DC012809D002287AD0032879D155
:1020700085E1102877D01128F9D1D2E10121412042
:1020800000F0BCFCC82002F0D5FF0821EB4801F0AD
:10209000A1FDC82002F0CEFF0821E94801F09AFD19
:1020A000C82002F0C7FFE748007800F0EFF94FF4CE
:1020B000AF71E4480078FFF717FFC82002F0BAFFBD
:1020C000E1480078FFF790FFC82002F0B3FFDF4837
:1020D000007870B100F082FAC82002F0ABFF02F085
:1020E000FFFF42F210710844D94908600020D74927
:1020F0000870D748006802F0F9FFD248007800F075
:10210000C5F94FF4AF71CF480078FFF7EDFEC82056
:1021100002F090FFCC480078FFF766FFC82002F07D
:1021200089FF0620CB4948700121202002F012FFD0
:102130004FF4FA7002F07EFF0020FEF755FC4FF4DA
:10214000FA7002F077FF4324C3A103C9CDE902016D
:102150008DF80E40082102A801F03CFDC82003E0E4
:1021600011E19EE065E13DE102F064FF4FF4FA7099
:1021700002F060FFFFF73EFDB3480078FFF7EAFE8C
:10218000C82002F057FFB0480078FFF7E3FEC820F0
:1021900002F050FFAB48007800F078F94FF4AF71CF
:1021A000A8480078FFF7A0FEC82002F043FFA64829
:1021B0000078FFF719FFC82002F03CFF02F03AFD5B
:1021C000C82002F037FF022330221946002001F018
:1021D00005F8B42001F03AF84FF4FA7002F02AFF43
:1021E00000200346022201210090422001F048FE17
:1021F000C82002F01FFF0021A42001F077FC4FF45B
:10220000FA7002F017FFFFF7F5FCC82002F012FF8A
:102210008D480078FFF79EFEC82002F00BFF90A0CB
:10222000006801900021A22001F060FCC82002F0AB
:1022300001FFFFF7AFFA4FF4AF7182480078FFF764
:1022400053FEC82002F0F6FE6420FFF7CDFEC82042
:1022500002F0F0FE002003460222012100904120FE
:1022600001F00EFEC82002F0E5FE0021A42001F0DE
:102270003DFCC82002F0DEFEFFF78CFAC82002F019
:10228000D9FE6420FFF766FEC82002F0D3FE64206A
:10229000FFF760FEC82002F0CDFE022066490870FC
:1022A000C8E014E064213220FFF71EFE4FF4967060
:1022B00002F0C0FE64213220FFF7DCFD322128202D
:1022C000FFF77CFE4FF4967002F0B4FE00E0E9E701
:1022D00000BF5C4909781431C8B24FF47A71FFF736
:1022E00003FEC82002F0A6FE6420FFF733FEC820DC
:1022F00002F0A0FE08215B4801F06CFC4FF4FA707C
:1023000002F098FE0821574801F064FC4FF4FA707F
:1023100002F090FE4FF4FA7002F08CFE52A000F032
:1023200029FC0821524801F055FC4FF4AF71454893
:102330000078FFF7D9FDC82002F07CFE4FF4AF71A2
:1023400040480078FFF7D0FDC82002F073FE3E48F9
:102350000078FFF749FEC82002F06CFE394800788B
:1023600000F094F84FF4AF7136480078FFF7BCFDE9
:10237000C82002F05FFE03202F4908705AE00920B0
:102380002D49087056E0C82002F054FE0321412078
:1023900000F034FB4FF4FA7002F04CFE082135488F
:1023A00001F018FC4FF4FA7002F044FE08213148A5
:1023B00001F010FC4FF4FA7002F03CFE08212E48A8
:1023C00001F008FC4FF4FA7002F034FE08212948AD
:1023D00001F000FC4FF4FA7002F02CFE10201649B8
:1023E000087027E01A48006802F080FE18B9112032
:1023F0001149087014E021480078012810D100200C
:102400001E4908701E480078552809D11C4840789C
:10241000022805D11A48807810B9002006490870B2
:1024200008E018A103C9CDE90201002002490870A3
:1024300000E000BF00BF1FBD370100204C0000209E
:102440003C0000203B0100203C0100203A0100201C
:102450002C010020E701002005064300000000BB1E
:1024600055A10100240000204238353432440000D8
:102470000C0100204400002004010020F70400208B
:10248000F009002055020200000002BB10B504460E
:1024900000200D4908700D4908700D4908700D495C
:1024A00008700D4908700D49087001200C4908702A
:1024B0000C4804600168006800F061F800BF024841
:1024C00000780128FBD110BD7E0300207703002097
:1024D0007403002075030020760300207803002099
:1024E00079030020880300201CB501214FF4C0703F
:1024F00001F028F9F020009000208DF80400012060
:102500008DF807006946144800F0FFF94FF4704059
:10251000009001208DF8040000208DF806000120B5
:102520008DF8070003208DF8050069460B4800F080
:10253000ECF92020009001208DF8040000208DF897
:10254000060001208DF8070003208DF8050069467C
:10255000024800F0DAF91CBD00200240001C0240D5
:1025600070B505460C460026284601F0D9F9064606
:1025700026EA0401284602F0C3FC002070BD70B5B5
:1025800005460C46002D06DB642D00DD6425052D77
:102590000BDA052509E015F1640F01DA6FF0630528
:1025A00015F1050F01DD6FF00405002C06DB642C2E
:1025B00000DD6424052C0BDA052409E014F1640F16
:1025C00001DA6FF0630414F1050F01DD6FF004040C
:1025D0002146284601F0C8FA70BD000010B5002061
:1025E0002649088026490880264908703FE023488C
:1025F0000088401C21490880012002F01BFD1F4873
:102600000088B0F5487F18DD00201C4908801C4870
:102610000088401C1A4908800846008806280BDA02
:1026200064212820FFF726FC642002F003FD6E21C0
:102630002820FFF759FC00E01DE01348007801282E
:1026400015D1002010490870052002F019FD0F482F
:1026500040780C280BD10D488078012807D10B4811
:10266000C078012803D10948007906490870054857
:1026700000780628BBD100BF10BD00005203002027
:10268000540300207E030020F7040020F0090020FE
:1026900010B5102000F03CF8012825D11021134876
:1026A00000F09EF9E8B90021114801F072FC1148D0
:1026B00090ED000AB8EE400A0F4880ED000AD0ED18
:1026C000000A9FED0E1AB3EE040A10EE810A80EDA7
:1026D000000A90ED000ABCEEC00A10EE100A08498C
:1026E0000880102000F00EF810BD00000004024029
:1026F00000100040700100206C010020F628DC3F33
:10270000740100200149086070470000143C01403A
:1027100001460020034A12680A400AB1012000E085
:1027200000207047143C0140002123498279002A8F
:102730003AD00A46126803689A430B461A600A1D8B
:10274000126803689A430B1D1A60027911440A68E3
:1027500003681A430A60184A0832126803689A43E9
:10276000154B08331A601A1D126803689A43124BFE
:102770000C331A604279102A0ED11A1F12680368AE
:102780001A430D4B08331A601A1D126803681A4366
:10279000094B0C331A600DE00749427911440A686D
:1027A00003681A430A6005E0027911440A68036865
:1027B0009A430A6070470000003C014010B500F0E9
:1027C0004BFEFDF7EBFE10BDF0B507460C46164676
:1027D000002564B106E06119384600F056F800B9EA
:1027E00004E06D1C301EA6F10106F4D100BF28469E
:1027F000F0BDF0B507460D461646002406E0295DFB
:10280000384600F06CF800B904E0641C301EA6F1F4
:102810000106F4D100BF2046F0BD30B504460025C6
:10282000204600F04AF870B1D4E90001401E814210
:1028300003D1A06838B1012505E0D4E90101401CAD
:10284000814200D00125284630BD30B50446002520
:10285000204600F032F820B1D4E90110884200D0BF
:102860000125284630BD70B504460D4664B1206888
:10287000012809D90020A0602068401E60602A4617
:102880002168E068FDF7AEFC70BD70B504460D46EA
:10289000002685B12046FFF7C0FF60B16068401C8C
:1028A00060602168884201D3002060606168E06850
:1028B000405C28700126304670BD0146002069B199
:1028C0000A68012A0AD9CA6842B10B688A689A4222
:1028D00004D2D1E900329A4200D20120704770B58B
:1028E00004460D4600262046FFF7AFFF58B1A16809
:1028F000481CA060E06845542168A068884201D364
:102900000020A0600126304670BDF0B50A460021C7
:102910000023002400BF3DE0012505FA01F31568FE
:1029200005EA03049C4234D105684F000326BE40EB
:10293000B543056015794E00B5400668354305601E
:102940001579012D02D01579022D16D185684F0019
:102950000326BE40B543856055794E00B540866874
:1029600035438560456801268E40B543456045681E
:1029700096798E40B6B235434560C5684F00032650
:10298000BE40B543C560D5794E00B540C6683543F5
:10299000C560491C1029BFD3F0BDF0B50023002449
:1029A0004D07ED0E02FA05F3CE1000F1200555F8A3
:1029B00026504E07F70E0F26BE40B543CF1000F14C
:1029C000200646F82750CE1000F1200555F8265075
:1029D00045EA0304CE1000F1200545F82640F0BD7D
:1029E0000246002013690B400BB1012000E00020DB
:1029F00070474183704701837047000070B50446FB
:102A00000D4696204E49088000204E49088093E0EC
:102A10004B480088401C4A4908800A2002F00AFB03
:102A200047480088502190FBF1F201FB120050B999
:102A3000422C04D10821444801F0CCF803E00821DD
:102A4000424801F0C7F83E480088C82858DD0020F9
:102A50003B4908803B480088401C3A4908800846AA
:102A600000880F2800DB68E0412C06D1012D04D13D
:102A70000821374801F0AEF842E0412C06D1022D82
:102A800004D10821334801F0A5F839E0412C06D1E2
:102A9000032D04D10821304801F09CF830E0412C8E
:102AA00006D1042D04D108212C4801F093F827E029
:102AB000422C06D1012D04D10821294801F08AF8C1
:102AC0001EE0422C06D1022D04D10821254801F038
:102AD00081F815E0422C06D1032D04D108212248AB
:102AE00001F078F80CE0422C06D1042D04D1082125
:102AF0001A4801F06FF803E00821154801F06AF860
:102B00001A480078012817D1002018490870184881
:102B10000078552810D1164840780D280CD114485B
:102B20008078032808D11248C078012804D11048C1
:102B30000079A84200D100E06AE700BF70BD000044
:102B40005203002054030020E8020020B8020020B5
:102B500098020020A0020020A8020020B00200205D
:102B6000C8020020D0020020D8020020F704002074
:102B7000F009002010B504465520274908700320AD
:102B80004870102088702078C87060780871A0782C
:102B900048718978204AD27811441F4A1279114429
:102BA0001D4A52798818C11700EB11610912A0EB78
:102BB0000121194A9171BB201146C87108211046A4
:102BC00001F008F84FF4C87002F034FA11201249ED
:102BD0008870E078C87020790871607948718978C8
:102BE0000D4AD27811440C4A127911440A4A52799A
:102BF0008818C11700EB11610912A0EB0121064AE8
:102C00009171BB201146C8710821104600F0E2FF07
:102C1000642002F00FFA10BD3603002010B5022127
:102C20000848FDF795FC0748FDF792FD00BF02211B
:102C30000448FDF7FDFC0028F9D00248FDF7F4FC3C
:102C400010BD00000020014070B52DED068B012065
:102C500001F0A4F8102001F0A1F800F071FB0F487A
:102C60000478407800EB04242046FDF73CFB41EC5F
:102C70001A0B9FED0B0B53EC102BFDF7C5FA41EC33
:102C8000190BFDF754FB08EE100ABDEEC80A10EE52
:102C9000105AA8B2BDEC068B70BD00007A0100206E
:102CA000333333333333F33F70B504460025002606
:102CB00007E0FFF7B3FF0544052002F0BBF9701CE5
:102CC000C6B2A642F5DBB5FBF4F080B270BD0000E1
:102CD0000146002021B107290AD008290ED10AE0B7
:102CE000074A5278064B1B7802EB032290B205E0AC
:102CF000034A507802E0024A107800BF00BF7047D4
:102D0000AC03002010B54FF480710248FFF768FE55
:102D100010BD00000018024010B5154800780128C9
:102D200010D100F067FE1349098888421EDB00209D
:102D30000F4908700320104908700021084600F070
:102D400013FF13E00D48007801280FD100F052FE68
:102D500008490988884209DB0020084908700320D7
:102D6000054908700021084600F0FEFE10BD000075
:102D7000770300208C0300207E03002078030020CE
:102D800000B589B00121212000F0DCFC09220B21D3
:102D90004248FFF702FE09220C214048FFF7FDFDE3
:102DA0004FF4C050079002208DF820008DF82100CC
:102DB00000208DF8220001208DF8230007A9374854
:102DC000FFF7A3FD4FF48060079001208DF82000ED
:102DD00002208DF8210000208DF8220001208DF8BE
:102DE000230007A92E48FFF790FD002000F05EF8B1
:102DF0000121480600F0B6FC2A48FDF73BFE002002
:102E00008DF8160001208DF8170000208DF81800AD
:102E100001208DF8190000208DF81A0001208DF88E
:102E20001B0000208DF812008DF8130001208DF892
:102E3000140002208DF815000720ADF8100004A939
:102E40001848FDF7C0FE00208DF80A008DF80B0031
:102E500001208DF80C000020ADF80000ADF8020054
:102E6000ADF80400ADF80600ADF8080001208DF8BB
:102E70000D006846FDF71AFE12200B4908604860F5
:102E80000020487208720120887200220221054841
:102E9000FDF790FEFEF768FC09B000BD000002409F
:102EA00000140240006400400009002010B50446F0
:102EB0002CB94FF480610548FFF79BFD04E04FF407
:102EC00080610248FFF797FD10BD0000001402402A
:102ED00010B5FEF7C9FF10BD10B504462CB14FF474
:102EE00080710548FFF787FD04E04FF480710248C8
:102EF000FFF77FFD10BD00000020024010B54FF429
:102F0000E06000F077FAA82002F076F801F0C4F84B
:102F100000F026F8FFF7E8FA01F04DFEFFF730FF6A
:102F2000FDF76AFCFDF7A2FDFFF748FC01F05CFC31
:102F300053210720FEF768FFA72140F2E73002F097
:102F4000E9F9A72140F2E73001F0DEF800F0FDFCDE
:102F500010BD0000014A107051707047AC03002092
:102F60001CB50121202000F0EDFB4FF40060009023
:102F700001208DF8040000208DF8060001208DF856
:102F8000070003208DF8050069460348FFF7BDFCE4
:102F90000120024908601CBD00140240AC8242427C
:102FA0002DE9F0410746884600202849086009209D
:102FB00002F040F801202649C1F8AC02042002F0DA
:102FC00039F84FF40C7002F05BF800242EE0002575
:102FD00028E0385D284100F0010676B900201B4941
:102FE00008604FF4FA7002F04BF801201849C1F85C
:102FF000AC024FF4FA7002F043F8012E10D1002019
:10300000124908604FF4FA7002F03AF801201049B2
:10301000C1F8AC0202F00EF84FF4487002F030F83C
:10302000681CC5B2082DD4DB601CC4B24445CEDB9D
:103030000020064908604FF40C7002F021F80120CE
:103040000349C1F8AC02BDE8F0810000AC82424205
:103050000080424210B500F050FA08B1FE2010BDC9
:1030600000F038FA022001F0E5FF00F039FA4120C3
:1030700000F030F908B1FE20F1E7012001490870A5
:103080000020ECE7B401002008B54E480068A8B95C
:103090000A2001F0CFFF4B48006878B94A48006821
:1030A00008B9012000E000204749086000BF4548FA
:1030B00000680028FBD00120444908704148001DE9
:1030C000006810BB0A2001F0B5FF3E48001D0068F3
:1030D000D8B93D48001D006808B9012000E0002073
:1030E0003949091D086000BF3648001D00680028E6
:1030F000FAD00021A12000F0F9FC0C21344800F0A6
:103100005DFDFEF747FBFEF775FD2E4808300068B1
:10311000C8BB0A2001F08EFF2A480830006890BB27
:1031200029480830006808B9012000E0002026493D
:103130000831086000BF2348083000680028FAD032
:1031400000200346022201210090412000F098FE59
:10315000C82001F06FFF0021A42000F0C7FCC820A8
:1031600001F068FFFEF716FBC82001F063FF642042
:10317000FEF7F0FEC82001F05DFF6420FEF7EAFED6
:10318000C82001F057FF0F480C300068C0B90A2072
:1031900001F050FF0B480C30006888B900BF0948A7
:1031A0000C3000680028FAD001214120FFF726FCEE
:1031B0000821084800F00EFD0821074800F00AFD2C
:1031C00008BD000010024442B08243423701002093
:1031D000280600204C0000203C0000202DE9F04192
:1031E00004460D4616461F46552017490870042010
:1031F0004870012F02D10120887002E0022012499C
:1032000088701148C470057146710146897802467C
:10321000D278114402461279114402465279881834
:10322000C11700EB11610912A0EB0121064A91714F
:10323000BB201146C8710821104600F0CBFC642069
:1032400001F0F8FEBDE8F0813603002010B5044619
:1032500055201F4908700420487088700020C870ED
:10326000642094FBF0F00A2190FBF1F201FB1200C4
:10327000174908710A2094FBF0F100FB114194FBFF
:10328000F0F00A2290FBF2F302FB130001EB0010B6
:103290000F49487189780E4AD27811440C4A127944
:1032A00011440B4A52798818C11700EB11610912B9
:1032B000A0EB0121064A9171BB201146C87108217B
:1032C000104600F087FC642001F0B4FE10BD000041
:1032D0003603002010B50446412C25D108210846AC
:1032E000FFF73EF93D21112001F00AFE862117204B
:1032F00001F006FE7F21262001F002FE1E212D2076
:1033000001F0FEFD00212C2001F0FAFD8D212A2084
:1033100001F0F6FD3E212B2001F0F2FD0A2001F024
:1033200089FE00F0DDF801E0FF2010BD0020FCE781
:1033300002468A4201D9501A7047881AFCE70000F9
:1033400010B5FDF71DFB4720FDF7EEFA00240EE057
:10335000FDF7A0FA08490855032C03D10120FDF719
:10336000C3FA02E00020FDF7BFFA601CC4B2032CD0
:10337000EEDBFDF721FB10BD7A01002070B50021C6
:1033800000230F22C4781CB3174C246804F4E064B3
:10339000C4F5E064C4F30721C1F10404E3B20A41B7
:1033A00044789C40E1B28478144021430C07210EFC
:1033B0000E4C05786155047804F01F050124AC40DB
:1033C00005786D11AD0005F1E025C5F8004109E073
:1033D000047804F01F050124AC40054D06787611F1
:1033E00045F8264070BD00000CED00E000E400E070
:1033F00080E100E002490143024A11607047000089
:103400000000FA050CED00E000211148C079BB284E
:103410001CD10F4A92780E4BDB781A440C4B1B7967
:103420001A440B4B5B79D018C21700EB12621212D0
:10343000A0EB0222D1B206488079884203D1012054
:10344000044A107002E00020024A10707047000029
:10345000280900200A05002010B52DED048BB0EEE0
:10346000080A164880ED000A90ED000ADFED140A04
:1034700020EE200A80ED000A9FED120A124880ED2E
:10348000000A90ED000ADFED0E0A20EE200A10EE91
:10349000101A0846FCF738FF41EC190B9FED0B0B97
:1034A00053EC102BFCF7B0FE41EC180BFCF73FFF80
:1034B00005490860BDEC048B10BD000088010020A8
:1034C0000000C84200CC0D41840100200000000033
:1034D0000070A74010B503211420FFF741F810BD7C
:1034E00010B5142000F01CFA044604F0030018B9CB
:1034F0000321142000F094FB10BD10B500F0F1F989
:1035000008B1FE2010BD0F21012001F0F9FC3D2182
:10351000112001F0F5FC1E212D2001F0F1FC00210D
:103520002C2001F0EDFC8D212A2001F0E9FC3E2148
:103530002B2001F0E5FC4021152001F0E1FC0020EA
:10354000E0E7000010B50320FFF7AEFB514908800B
:103550000846008800F030FC4E4908804E4801883B
:103560004C480088FFF7E4FE4C4908704A48008840
:10357000F0BB4B48D0ED000A4648008800EE100A28
:10358000B8EE400A20EE800ABCEEC00A10EE100A27
:10359000404908800846008800EE100AB8EE400A4C
:1035A0004048D0ED000AB4EEE00AF1EE10FA03D282
:1035B00000203D49087016E03648008800EE100AE9
:1035C000B8EE400A3748D0ED000A30EE600ABCEE93
:1035D000C00A10EE100A34490870084600786428C2
:1035E00001DD64200870304800783049087000E040
:1035F00004E008460178012000F092FA254800888E
:1036000025490880254800780A2842DD2448D0ED65
:10361000000A2048008800EE100AB8EE400A20EEAA
:10362000800ABCEEC00A10EE100A1A49088008464B
:10363000008800EE100AB8EE400A1A48D0ED000AE1
:10364000B4EEE00AF1EE10FA03D200201649087039
:1036500016E01048008800EE100AB8EE400A114843
:10366000D0ED000A30EE600ABCEEC00A10EE100A7F
:103670000D49087008460078642801DD6420087050
:10368000094800780949087008460178012000F0CF
:1036900047FA10BD8E010020900100209201002009
:1036A00084010020880100208C010020800100207E
:1036B00010B586B004460121084600F043F8012108
:1036C000102000F06FF8072209211B48FFF765F969
:1036D00007220A211848FFF760F94FF4C0600490F0
:1036E00002208DF8140000208DF8160001208DF8BE
:1036F000170003208DF8150004A90F48FFF705F9FE
:1037000000940020ADF80C000C20ADF80A00002059
:10371000ADF80800ADF80600ADF8040069460748AA
:1037200000F0EEFF0121054800F081FF0020044970
:10373000087006B010BD00000000024000100140FB
:10374000B401002029B1064A12680243044B1A60F2
:1037500004E0034A12688243014B1A60704700007C
:103760003038024029B1064A12680243044B1A60FD
:1037700004E0034A12688243014B1A60704700005C
:103780004038024029B1064A12680243044B1A60CD
:1037900004E0034A12688243014B1A60704700003C
:1037A0002038024029B1064A12680243044B1A60CD
:1037B00004E0034A12688243014B1A60704700001C
:1037C0004438024029B1064A12680243044B1A6089
:1037D00004E0034A12688243014B1A6070470000FC
:1037E00024380240F0B500210022002402250026E2
:1037F0000223324F3F6807F00C0121B1042905D0A4
:10380000082937D105E02E4F076036E02D4F0760BD
:1038100033E02A4F3F1F3F68C7F38056274F3F1FB3
:103820003F6807F03F036EB1264FB7FBF3F7DFF8B1
:103830008CC0ACF1040CDCF800C0CCF3881C07FB96
:103840000CF40CE01E4FB7FBF3F7DFF870C0ACF1DF
:10385000040CDCF800C0CCF3881C07FB0CF4174FF9
:103860003F1F3F68C7F301477F1C7D00B4FBF5F79E
:10387000076002E0124F076000BF00BF0F4F3F68B4
:1038800007F0F0010909104F7A5C0768D7404760DC
:103890000A4F3F6807F4E051890A0B4F7A5C47688A
:1038A000D7408760054F3F6807F46041490B064FDA
:1038B0007A5C4768D740C760F0BD00000838024016
:1038C0000024F40040787D01640300200148007862
:1038D00070470000B401002010B5142000F020F85B
:1038E00010BD38B5FE2500200090002400BF12E076
:1038F000552000F07BF942F21071684600F032F872
:1039000038B9552000F072F9642001F093FB0025CE
:1039100003E0601C84B2642CEADB00BF68B238BDEF
:1039200038B5044604F03F0040F08004204600F023
:103930005DF942F21071684600F014F805460DB1C9
:10394000FF2038BD9DF80000FBE710B54FF416507E
:10395000FFF7AEFE4FF4FA7001F06CFBFFF77AFB55
:1039600010BD000070B504460D4601F0B9FB4FF4E0
:10397000FA61B5FBF1F146180AE00A48008800F048
:10398000200028B1074800F025FF2070002070BDFE
:10399000304601F0ABFB0028EFD10349087001204D
:1039A000F5E7000000100140B401002010B5FFF75A
:1039B000B3F901F0FDFC01F0DDFC00F0D5FB10BD1A
:1039C0000020064908700649087006490870064933
:1039D0000870064908700649087070477403002093
:1039E000750300207703002078030020790300206E
:1039F0007E0300200F48B0F900000F4AB2F9002002
:103A0000904207DD0B48B0F900000B4AB2F90020E4
:103A1000811A06E00848B0F90000064AB2F9002011
:103A2000811AB1F5004F02D94FF6FF70411A88B2E2
:103A300070470000AE030020940300200248B0F954
:103A40000000024908807047AE0300209403002064
:103A5000024800880249088070470000B003002037
:103A6000960300201CB58020009000208DF80400F3
:103A700001208DF8070069460148FEF746FF1CBD8E
:103A8000000402401CB58020009001208DF8040045
:103A900000208DF8060003208DF8050069460248D5
:103AA000FEF733FF1CBD00000004024030B50022C9
:103AB0008B071C0F0F2303FA04F20B4B8C1053F8E7
:103AC00024309343084C8D1044F8253023468C1045
:103AD00053F824308C07240F00FA04F42343024CDB
:103AE0008D1044F8253030BD0838014070B50546CA
:103AF0000C46552009490870AA2048700846857070
:103B0000C470042100F05AF800F0AEFE042103480E
:103B100000F098FE00F0B4FE70BD00002806002002
:103B20007CB505460C4603208DF8040001208DF875
:103B300005008DF8064000204FF4F073032201A920
:103B400000901046FDF726FD7CBD000070B50446D0
:103B50000D462A4621460348FEF74BFE642001F03D
:103B600069FA70BDF40600207CB504460D46E0B24B
:103B70008DF80400E0B28DF80500E8B28DF806007B
:103B8000E8B28DF80700FDF7D3FB78B100200346BB
:103B900020220421009001A8FDF790FB00202023A3
:103BA000024601A90090FDF7F5FC06E00020202365
:103BB000042201A90090FDF7EDFC7CBD70B5044620
:103BC0000D462A4621460248FEF713FE70BD00004E
:103BD0001407002070B504460D462A4621460248C7
:103BE000FEF707FE70BD00003407002010B5044644
:103BF0000A48008800BF0948008800F080000128BA
:103C0000F9D02146054800F0EAFD00BF40210348F5
:103C100000F019FD0128F9D110BD0000001001408D
:103C200070B505460C4600262846FFF779FE064685
:103C300046EA0401284601F063F9002070BD000047
:103C40000CB50020019000903448006840F48030AA
:103C50003249086000BF3148006800F4003000902D
:103C60000198401C0190009818B90198B0F5A04F38
:103C7000F1D12A48006800F4003010B10120009012
:103C800001E0002000900098012846D123484030F0
:103C9000006840F0805021494031086020480068A9
:103CA00040F440401E4908601C48083000681B4929
:103CB000083108600846006840F400400860084683
:103CC000006840F4A05008601648091F0860081FEB
:103CD000006840F08070091F086000BF0F4800684E
:103CE00000F000700028F9D040F205700E4908601D
:103CF0000A480830006820F00300084908310860CD
:103D00000846006840F00200086000BF0348083021
:103D1000006800F00C000828F8D10CBD0038024003
:103D20000070004019544007003C024010B50446A2
:103D3000012C04D141030548FEF75BFE05E024B9E0
:103D40004FF400510148FEF756FE10BD0008024036
:103D500070B505460C46012D02D0022D1AD10CE09B
:103D60002CB14FF480610C48FEF743FE04E04FF4A1
:103D700080610948FEF73FFE0CE02CB14FF4006172
:103D80000548FEF736FE04E04FF400610248FEF7F6
:103D900032FE00BF00BF70BD001C024010B50446DB
:103DA000FCF7EEFD4620FCF7BFFD2046FCF7BCFD0E
:103DB000FCF702FE10BD000010B5024600230B48C0
:103DC000828200210BE0094C481C34F8100024F8D2
:103DD0001100204630F81100184483B2491C0A290A
:103DE000F1DB0A2093FBF0F080B210BD8C060020BE
:103DF000042808D14FF0E021096941F004014FF097
:103E0000E022116107E04FF0E021096921F004018F
:103E10004FF0E0221161704710B51548006840F47A
:103E20007000134908601348006840F00100114910
:103E3000086000200F49083108600E4800680E49EC
:103E400008400C4908600D48091D0860081F0068FB
:103E500020F48020091F0860002006490C3108600A
:103E6000FFF7EEFE4FF0006001498039086010BD99
:103E700088ED00E000380240FFFFF6FE103000241D
:103E80002DE9F04104460D4616461F46DDF8188020
:103E9000552017490870422C02D10820487002E0D2
:103EA0000B201349487012488570C670077180F85E
:103EB0000580014689780246D2781144024612797B
:103EC0001144024652798818C11700EB116109129A
:103ED000A0EB0121064A9171BB201146C87108214F
:103EE0001046FFF777FE642001F0A4F8BDE8F081EA
:103EF0003603002010B50121054800F056F80128CE
:103F000001D1FFF753FD0121014800F03FF810BD3A
:103F10000040014010B50121074800F046F8012893
:103F200004D106480068401C044908600121024889
:103F300000F02CF810BD0000004401405C0300209C
:103F400010B50121074800F030F8012804D10648D7
:103F50000068401C044908600121024800F016F87E
:103F600010BD0000001000407001002010B50121BC
:103F7000054800F01AF8012801D1FEF7A9FF012138
:103F8000014800F003F810BD00140040CA4302824B
:103F9000704721B1028842F00102028004E00288E9
:103FA0004FF6FE731A400280704730B5024600207B
:103FB00000230024158A05EA0103958905EA010416
:103FC00013B10CB1012000E0002030BD1AB183898B
:103FD0000B43838102E083898B4383817047000018
:103FE00000220288184B98420ED0184B98420BD0F2
:103FF000B0F1804F08D0164B984205D0154B98422F
:1040000002D0154B984204D14FF68F731A404B885B
:104010001A43124B984207D0114B984204D04FF6E6
:10402000FF431A400B891A4302804B68C3620B8816
:104030000385054B984202D0044B984201D18B7AFC
:104040000386012383827047000001400004014081
:104050000004004000080040000C00400010004038
:10406000001400401CB501210420FFF76BFB4FF446
:104070000050009001208DF804008DF8070069467B
:104080000448FEF742FC4FF400510248FEF7B3FC2F
:104090001CBD00000008024010B500F005F8FFF755
:1040A000E1FF00F017F810BD1CB501214020FFF71B
:1040B00049FB4FF48070009000208DF8040001202F
:1040C0008DF8070069460248FEF71FFC1CBD000082
:1040D000000002401CB501218020FFF733FB4FF4A4
:1040E0004060009001208DF804008DF807006946BB
:1040F0000448FEF70AFC4FF440610248FEF77BFCDF
:104100001CBD0000001C02407FB505460C46012185
:104110004804FFF747FB0295ADF804400020ADF8D6
:104120000600ADF80C008DF80E0001A90D48FFF750
:1041300057FF19208DF8000000208DF8010006209F
:104140008DF8020001208DF803006846FFF716F98C
:10415000012211460348FFF739FF01210148FFF70B
:1041600018FF7FBD0044014010B5064800780128C3
:1041700006D10820FEF7ACFDC4B2204600F004F8DA
:1041800010BD00007903002010B5044654B900208A
:104190006C49087001206C49087000210846FFF73F
:1041A000E3FC86E0E72C08D16848006868490860AD
:1041B00066480068674908607BE0F72C01D0F32C63
:1041C0000AD1624800681430614908605F4800689D
:1041D0002838604908606CE0FB2C01D0F92C0AD12A
:1041E0005A48006828305A490860584800683C38E6
:1041F000584908605DE0FD2C01D0FC2C0AD15348E1
:1042000000683C3052490860504800685A385149AB
:1042100008604EE0FE2C0AD14C48006850304C49F2
:1042200008604A48006878384A49086041E0EF2C45
:1042300001D0CF2C0AD145480068143045490860A8
:104240004248006828384249086032E0DF2C01D03B
:104250009F2C0AD13D48006828303E4908603B4801
:1042600000683C383A49086023E0BF2C01D03F2C5D
:104270000AD1364800683C30364908603348006847
:104280005A383349086014E07F2C0AD12F4800685F
:104290005030304908602D48006878382C49086053
:1042A00007E02A4800682A49086028480068294928
:1042B000086029480078012813D104F01800182854
:1042C0000FD104F0800010B104F0010048B90020C3
:1042D0001C49087001201C49087000210846FFF79E
:1042E00043FCFF2C20D11948006819490860174881
:1042F00000681849086019480088B0F5966F0DDD10
:1043000000201649088000210846FFF72DFC0020F8
:104310000C49087004200C49087008E00F48008818
:10432000401C0E49088002E000200C490880054826
:10433000007828B10748016805480068FEF71FF9B2
:1043400010BD0000790300207E03002088030020B8
:104350008003002084030020300100207C03002023
:10436000024600215178107840EA01210846704742
:10437000024600211178507840EA01210846704732
:1043800010B5024800F070FB10BD0000FC050020D5
:1043900010B51248007800BB40F22551104800F0DB
:1043A0005FF9012819D10E4800F014FA0D490E4AA0
:1043B000127888540C480078401C0B490870084655
:1043C0000078022804DB00200870012003490870EF
:1043D00040F22551024800F01BF910BD7601002083
:1043E00000100140780100207701002010B540F254
:1043F0002551184800F034F901282AD116480078D0
:1044000090B900F06DFE0A3014490860002014498C
:104410000870104800F0DEF91249114A12788854E9
:1044200001200D4908700FE00D480078C8280BDA0C
:10443000084800F0CFF9C1B209480078401CC0B26A
:10444000074A1070074A115440F22551014800F004
:10445000DFF810BD00440040F5040020FC040020FB
:10446000F40400202809002000B587B001210420B1
:10447000FFF768F901212020FFF794F908220621AF
:104480002348FEF78AFA082207212148FEF785FA19
:10449000C020059002208DF8180000208DF81A0029
:1044A00003208DF8190001208DF81B0005A918487C
:1044B000FEF72BFA4FF4E13001900020ADF8100028
:1044C0000C20ADF80E000020ADF80C00ADF80A008D
:1044D000ADF8080001A90F4800F012F9012240F2DE
:1044E00025510C4800F0E6F847208DF80000002028
:1044F0008DF801008DF8020001208DF80300684658
:10450000FEF73CFF0121034800F091F807B000BD21
:10451000000802400014014010B540F2255128481F
:1045200000F09EF8002845D0254800F053F92549B1
:1045300008702548007878B908460078552839D1A0
:104540000120214908701F48007820490870002088
:1045500048708870C8702DE01B480078012807D18A
:10456000022019490870174800781849487021E05E
:1045700015480078022807D1032013490870114814
:1045800000781249887015E00F48007803280AD196
:1045900000200D4908700B4800780C49C8700120B4
:1045A0000B49087006E000200749087008490870A8
:1045B0000649087040F22551014800F029F810BD65
:1045C00000140140E5010020E6010020E701002081
:1045D000EF01002010B504462146054800F0FFF821
:1045E00000BF8021024800F02EF80028F9D010BD4D
:1045F0000014014070B505460E46002400BF04E0DB
:10460000285DFFF7E7FF601CC4B2B442F8DB70BD61
:1046100010B50022002340F66A14A14200D100BF69
:104620000A1201249440A3B2DC43048010BD21B1DE
:10463000828942F40052828104E082894DF6FF7340
:104640001A408281704702460020B1F5007F00D1F8
:1046500000BF13880B400BB1012000E00020704721
:1046600070B50246002400230025002040F66A169B
:10467000B14200D100BFC1F3421501F01F03012672
:1046800006FA03F3012D02D19689334006E0022D8C
:1046900002D1168A334001E0968A33400C1201267B
:1046A00006FA04F41688344013B10CB1012000E07E
:1046B000002070BDF0B50346002400260025002030
:1046C00040F66A17B94200D100BF1846C1F3421440
:1046D00001F01F06012707FA06F5012C01D10C3065
:1046E00004E0022C01D1103000E014301AB1076848
:1046F0002F43076002E00768AF430760F0BD00008A
:104700002DE9FF4705460E460024A14600BFA046FE
:10471000B08900B100BF2C8A24F44054F0880443CF
:104720002C82AC8941F20C608443B0883189084303
:10473000718908430443AC81AC8A24F44074B08985
:104740000443AC826846FFF74DF82048854202D00A
:104750001F48854202D1DDF80C9001E0DDF8089099
:10476000A88900F4004040B109EBC90000EB091032
:1047700031684900B0FBF1F707E009EBC90000EB35
:10478000091031688900B0FBF1F76420B7FBF0F045
:1047900004012009642101FB1078A88900F400407D
:1047A00040B1322000EBC800B0FBF1F000F0070090
:1047B000044308E0322000EB08106421B0FBF1F064
:1047C00000F00F0004432C81BDE8FF87001001407A
:1047D0000014014001468888C0F308007047C1F307
:1047E000080282807047000010B512481249C1F8D3
:1047F000B00032211048C0F8B4100021C0F8B81041
:10480000C0F8BC10C0F8C0100C49C0F8C410022198
:10481000C0F8C8100021C0F8CC10C0F8D010C0F803
:10482000D410042180F8D81000200549087000F049
:1048300081F810BD180500204C05002094010020CF
:104840009301002070B505460C46E1B2044A2846A3
:1048500000F01EF814B101200249087070BD00007C
:10486000FC0500209301002010B5034800F02EF84D
:1048700000200249087010BDFC05002093010020B3
:1048800010B5024800F03EF810BD0000FC05002005
:1048900070B50346002013E0D2E90154AC4206D2C1
:1048A0001D5C9668741C94601468A55506E0064D5E
:1048B0001469AC4202D21469641C1461441CE0B255
:1048C0008842E9DB70BD0000F0FFFF7F10B50446B1
:1048D00094F828100A4A52F82100002240F2277169
:1048E000FFF7E8FE0020A060E060206194F8281047
:1048F000034A52F8210040F22771FFF789FE10BDEC
:104900009C01002010B504460020E060206800787B
:1049100094F82810064A52F82110888094F828103C
:1049200052F82100012240F22771FFF7C3FE10BDAB
:104930009C01002000B587B0012140F20910FEF76C
:1049400001FF01214FF42020FEF70CFF0822002177
:104950004048FEF722F8072206213F48FEF71DF8DF
:1049600000208DF81A0001208DF81B0002208DF820
:1049700018000120059002208DF8190005A935487E
:10498000FDF7C3FF02208DF818004020059005A90F
:104990003148FDF7BAFF00208DF81A0001208DF88C
:1049A0001B008DF818000002059002208DF81900F8
:1049B00005A92A48FDF7A9FF0020FEF78DFA4FF45C
:1049C000E13001900020ADF80800ADF80A00ADF824
:1049D0000C00ADF810000820ADF80E0001A9204829
:1049E000FFF78EFE01211E48FFF721FE34208DF8CF
:1049F000000000208DF8010002208DF80200012047
:104A00008DF803006846FEF7B9FC4FF4E1300190E1
:104A10000420ADF80E0001A91248FFF771FE262010
:104A20008DF8000000208DF801008DF802000120B3
:104A30008DF803006846FEF7A1FC012240F22551E3
:104A40000848FFF737FE01210648FFF7F0FD07B0E1
:104A500000BD000000000240000C024000200240A7
:104A6000004C00400044004010B5044694F8281063
:104A7000374A52F8210040F22771FFF7F1FD18B3D1
:104A8000E068401CE060D4E90210884209D2E16885
:104A90002068405C94F828102D4A52F82110888034
:104AA00009E094F828102A4A52F82100002240F226
:104AB0002771FFF7FFFD94F82810254A52F82100CE
:104AC00040F22771FFF7A4FD94F82810204A52F80D
:104AD000210040F22551FFF7C3FD30B300F000FB89
:104AE000606294F828001A4951F82000808819491A
:104AF000087094F82810164A52F8210040F2255107
:104B0000FFF786FDD4E90610884207D211480178E4
:104B1000E269501CE0616069815406E00E49206A38
:104B2000884202D2206A401C206294F82810084A69
:104B300052F821000821FFF786FD38B194F82800CB
:104B4000034951F8200080880449087010BD000016
:104B50009C01002098010020F0FFFF7F99010020B8
:104B60000EB54FF4C060FEF745FC01218803FEF747
:104B700019FE04210120FEF799FF1020019000206A
:104B80008DF808000C208DF8090001208DF80A002E
:104B900001A8FDF7C9FD0A208DF8000000208DF85E
:104BA000010007208DF8020001208DF803006846FF
:104BB000FEF7E4FB0EBD10B500F008F85321092004
:104BC00000F064F8FFF7CCFF10BD00001CB5012118
:104BD0000320FEF7B7FD00220E211448FDF7DDFE8D
:104BE00000220D211148FDF7D8FE4FF4004000903F
:104BF00001208DF8040000208DF8060001208DF8BA
:104C0000070003208DF8050069460848FDF77DFE82
:104C10001020009000208DF8040001208DF807007E
:104C200069460348FDF771FE1CBD0000000002400C
:104C30000004024010B5012010490860032000F074
:104C40001FFA00200E49C1F8BC0201210D48FFF7F0
:104C5000A0F901210B48FFF799F900200A490860E3
:104C60001E2000F0E7F9012004490860052000F04B
:104C7000E1F900210348FFF78CF910BDBC02404266
:104C80000000404200100040700100207FB5054642
:104C90000C4601211020FEF765FD0295ADF8044099
:104CA0000020ADF8060001A90D48FFF799F936205C
:104CB0008DF8000000208DF8010008208DF802001A
:104CC00001208DF803006846FEF758FB01221146CB
:104CD0000348FFF77BF900210148FFF75AF97FBD30
:104CE0000010004010B500245D480078012871D103
:104CF0005C480078AF28FAD15A484078012818D18A
:104D000000BF58488078012806D0022807D0032821
:104D100008D004280BD108E044F0800408E044F0F7
:104D2000400405E004F0B00402E0002400E000BF0D
:104D300090E04C484078062869D104F0F0044948D6
:104D40008078082861D2DFE800F06004111E2B385B
:104D500046530120FFF73EFC092143A0FEF7F6FE73
:104D600043A000F021F944F002044FE00220FFF7D5
:104D700031FC092142A0FEF7E9FE43A000F014F93E
:104D800044F0030442E00320FFF724FC092142A081
:104D9000FEF7DCFE42A000F007F944F0040435E021
:104DA0000420FFF717FC092140A0FEF7CFFE41A029
:104DB00000F0FAF844F0050428E00520FFF70AFCAB
:104DC00009213FA0FEF7C2FE3FA000F0EDF844F03D
:104DD00006041BE041E00620FFF7FCFB09213DA093
:104DE000FEF7B4FE3DA000F0DFF844F007040DE04C
:104DF0000720FFF7EFFB09213BA0FEF7A7FE3CA031
:104E000000F0D2F844F0080400E000BF22E01548AA
:104E1000407803281ED113488078052814D008DC78
:104E200001280DD002280CD003280BD004280FD164
:104E300009E0102809D0112808D0122808D106E06E
:104E400007E006E005E004E003E002E001E000E046
:104E500000BF00BF002002490870204610BD0000BE
:104E6000EF010020E701002049443A20320A000007
:104E70002A20BCCEBACCCDFBB8DAD5BE202A0000A1
:104E800049443A20330A00002A20BBA8B5D8CDE512
:104E9000D5BE202A0000000049443A20340A000010
:104EA0002A20CEE5C9BDD5BE202A000049443A20BB
:104EB000350A00002A20CDACBACDD5BE202A00008C
:104EC00049443A20360A00002A20C5FDC5C3D5BE94
:104ED000202A000049443A20370A00002A20B4F36F
:104EE000D6DED5BE202A000049443A20380A000008
:104EF0002A20B9E3D6DDC4CFD5BE202A00000000A9
:104F000070B504460D462946204600F001F870BDF4
:104F1000F8B504460D46032704F03F04002714E0CB
:104F20002046FEF763FE42F210716846FEF71AFD56
:104F3000064646B99DF80000844203D12846FEF794
:104F400055FE04E00226781CC7B2032FE8DB00BF41
:104F50003046F8BD70B504460D465520114908701D
:104F60000620487008468470C5700020087148719A
:104F700089780C4AD27811440A4A12791144094AB4
:104F800052798818C11700EB11610912A0EB0121B9
:104F9000044A9171BB201146C87108211046FEF7E2
:104FA00019FE70BDF5010020014A024900F013B856
:104FB000CD5000081405002002E008C8121F08C1E7
:104FC000002AFAD170477047002001E001C1121F8A
:104FD000002AFBD170472DE9F04116460F460446E2
:104FE000002503E03946B047641C6D1C207800287A
:104FF000F8D12846BDE8F08110B504466FF00400F2
:10500000FEF7F6FEE11704EB5171C1F3C701074A41
:1050100011701046007800EB4001C1EBC0104FF654
:10502000FF7101EAC0000249088010BD560300204C
:10503000580300200146114A12884A434FF0E023EA
:105040005A6100229A611A46126942F001021A61FD
:1050500000BF4FF0E022106900F001021AB100F425
:105060008032002AF5D04FF0E022126922F00102CE
:105070004FF0E0231A6100229A6170475803002024
:105080000146114A12784A434FF0E0235A61002248
:105090009A611A46126942F001021A6100BF4FF08C
:1050A000E022106900F001021AB100F48032002AF7
:1050B000F5D04FF0E022126922F001024FF0E02318
:1050C0001A6100229A6170475603002038B50446E1
:1050D0008DF8000069460320ABBE204638BD0000B5
:1050E00001480068704700005C030020044909681B
:1050F000884203D902490968401A00E0002070473D
:105100005C03002000240025FDF7F8FEFFF7E8FF10
:10511000323072490860FFF7E3FFC8307049086019
:10512000FFF7DEFFC8306F490860FFF7D9FFC830CE
:105130006D49086055206D490870AA2048705520B7
:105140006B4908700220487000210846FEF70CFDEC
:10515000C2E0FDF799FFFCF71DFBFCF74BFDFCF7E8
:105160007BFF5E480068FFF7C1FF60B9FFF7B8FF3B
:1051700032305A4908605F48006808B9012000E0F1
:1051800000205C49086056480068FFF7AFFF30B95F
:10519000FFF7A6FFC83052490860FEF7D3F952481E
:1051A0000068FFF7A3FF20BBFFF79AFFC8304E4906
:1051B0000860FEF78BFB60B9FEF7C7FB4D48283847
:1051C000006808B9012000E000204A492839086039
:1051D0000FE000204749283908604748D0F8B0025E
:1051E00008B9012000E0002042490C390860FEF7B0
:1051F00073FB3C480068FFF779FF00286CD1FFF78C
:105200006FFF00F5FA70374908603C4800780028C5
:105210004BD13B48007835498870FDF773FD334921
:10522000C870FFF707FD37490888C11700EB116107
:105230000912A0EB01212D4A117132490888C117CA
:1052400000EB1161090A5171FDF7FEFC044620468E
:10525000E11704EB11610912A4EB0121234A9171BA
:10526000E11704EB1161090AD1712748008885B262
:105270002846E91705EB11610912A5EB012111720E
:10528000E91705EB1161090A5172204800781146AF
:105290008872FFF7E9FA0D211448FFF7D3FAFFF7F8
:1052A000EFFA00201949087016E014480078012828
:1052B00012D11748007801280ED1FFF7D5FA322114
:1052C0000B48FFF7BFFAFFF7DBFA32210848FEF779
:1052D00075FC00200E4908703BE70000200100200B
:1052E0001C010020240100202801002028060020A5
:1052F0005A060020BC82434200804342F80400204A
:105300007E03002074010020AE0300203501002040
:10531000F90400207FB505460C4601210804FEF77C
:1053200041FA0295ADF804400020ADF80600ADF852
:105330000C008DF80E0001A90D48FEF751FE182053
:105340008DF8000000208DF8010005208DF8020086
:1053500001208DF803006846FEF710F8012211467F
:105360000348FEF733FE01210148FEF712FE7FBD20
:105370000040014010B500240A48007880B1FEF7D3
:1053800039FB044608480088844209DB00200549AF
:10539000087002200549087000210846FEF7E4FB6A
:1053A00010BD0000760300208E0300207E03002045
:1053B00010B500242348007801281FD10820FDF7EC
:1053C00087FC044604F0100080B91F4800683228AA
:1053D00037D900201B4908701B49086002201B496F
:1053E000087000210846FEF7BFFB2AE0FF2C28D1F9
:1053F00015480068401C1449086022E014480078F1
:1054000001281ED10820FDF763FC044604F00800C3
:1054100080B90D480068322813D900200C49087063
:105420000949086002200949087000210846FEF772
:105430009BFB06E0FF2C04D103480068401C024996
:10544000086010BD74030020900300207E0300203C
:1054500075030020010000000200000004000000AD
:1054600008000000100000002000000040000000C4
:1054700080000000000100000002000000040000A5
:1054800000080000001000000020000000400000A4
:105490000080000000000100000002000000040085
:1054A0000000080000001000000020000000400084
:1054B0000000800000000001000000020000000465
:1054C0000000000800000010000000200000004064
:1054D00000000080FEFFFFFFFDFFFFFFFBFFFFFF5F
:1054E000F7FFFFFFEFFFFFFFDFFFFFFFBFFFFFFF44
:1054F0007FFFFFFFFFFEFFFFFFFDFFFFFFFBFFFF43
:10550000FFF7FFFFFFEFFFFFFFDFFFFFFFBFFFFF23
:10551000FF7FFFFFFFFFFEFFFFFFFEFFFFFFFBFF21
:10552000FFFFF7FFFFFFEFFFFFFFDFFFFFFFBFFF03
:10553000FFFF7FFFFFFFFFFEFFFFFFFDFFFFFFFB02
:10554000FFFFFFF7FFFFFFEFFFFFFFDFFFFFFFBFE3
:10555000FFFFFF7F0008040C020A060E0109050D7B
:10556000030B070F845500080000002018050000F9
:10557000F2040008FC56000818050020A0090000ED
:10558000C84F0008102200FF0CF300FF18E700FFCF
:105590005EA103051445DE92673478A2FD27FF144F
:1055A00001000000FF14020610045503010D130250
:1055B000BB08110F12030842200813040318220429
:1055C000085200101118200505BB550E3C120108A9
:1055D0003302011830040E02022830040E020320A8
:1055E000520F20520F20520F20520F20520D705296
:1055F0000D7030040D01034040040D01042051588A
:10560000520D585205305205305205305205305275
:105610000530520588130B10B822110811B050053F
:1056200012BB550AE0200702A0A1000041080007B4
:105630001BA2000042BB0001A409014664235E01D5
:105640004A012A27FF140A13FF1477001532005568
:10565000A10155A10255A10355A10455A11055A1C1
:10566000110001100A1001400044004000480412DB
:105670004C0412500C411A9012303132333435360A
:10568000373839414243444546FF01A00E5246494E
:10569000445F414444523A30310A4F12FDB962012D
:1056A0000D12FA0111F209FF04091D04265501D457
:1056B0000D0000BB74696D653A3030730AA3355430
:1056C00027AF06190A16013520050102030404005C
:1056D000063B060708090001100AC003E007800224
:1056E000E007A0041007E000E0070001081104A192
:0C56F0002406FF30D40D38D8034101001F
:040000050800018965
:00000001FF
